:020000040800F2
:10000000F0170020C1010008030500088B0200085A
:1000100001050008EB020008E108000800000000EC
:10002000000000000000000000000000850600083D
:10003000ED02000800000000130200085D07000840
:10004000DB010008DB010008DB010008DB01000820
:10005000DB010008DB010008DB010008DB01000810
:10006000DB010008DB010008DB010008DB01000800
:10007000DB010008DB010008DB010008DB010008F0
:10008000DB010008DB010008DB010008DB010008E0
:10009000DB010008DB010008DB010008DB010008D0
:1000A000DB010008DB010008DB010008DB010008C0
:1000B000DB010008DB010008DB010008DB010008B0
:1000C000DB010008DB010008DB010008DB010008A0
:1000D000DB010008DB010008DB010008DB01000890
:1000E000DB010008DB010008DB010008DB01000880
:1000F000DB010008DB010008DB010008DB01000870
:10010000DB010008DB010008DB010008DB0100085F
:10011000DB010008DB010008DB010008DB0100084F
:10012000DB010008DB010008DB010008DB0100083F
:10013000DB010008DB010008DB010008DB0100082F
:10014000DB010008DB010008DB010008DB0100081F
:10015000DB010008DB010008DB010008DB0100080F
:10016000DB010008DB010008DB010008DB010008FF
:10017000DB010008DB010008DB010008DB010008EF
:10018000DB010008DB010008DB010008DB010008DF
:10019000DB010008DB010008DB010008DB010008CF
:1001A000DB010008DB010008DB010008DFF80CD0F0
:1001B00000F082F800480047DD020008F017002038
:1001C0000648804706480047FEE7FEE7FEE7FEE7F1
:1001D000FEE7FEE7FEE7FEE7FEE7FEE77107000841
:1001E000AD010008EFF3108072B6704780F31088FD
:1001F00070472B4A1368012B04D04FF001031360A2
:10020000284A1060284A116028484FF08051016048
:100210007047EFF3108272B62148016891B14FF038
:10022000000101601F48016829B1EFF3098121E94C
:10023000F00F006801601C4909680968B1E8F00F17
:1002400081F3098882F310884EF0040E7047164936
:10025000086014494FF00000086011494FF0010098
:10026000086013484FF47F01D0F8002041EA0201F2
:1002700001600E484FF0805101600E480068006830
:1002800080F3088861B662B67047EFF3098000B565
:1002900000F09AFF5DF804EB4EF0040E704700008A
:1002A000D4000020CC000020D000002004ED00E0AD
:1002B00020ED00E008ED00E0064C074D06E0E068A8
:1002C00040F0010394E8070098471034AC42F6D39D
:1002D000FFF770FF98340008B834000810B5FFF736
:1002E00081FF02F0B9FD002010BDFEE7704700005D
:1002F00070B586B00121084600F056F901211020A2
:1003000000F060F900248DF8164001208DF81700E8
:1003100002258DF815508DF81450400204901C4EA3
:1003200004A9304600F038F88DF8145069020491A1
:1003300004A9304600F030F807220A21304600F0C8
:1003400069F807220921304600F064F84FF4E130E3
:100350000090ADF80440ADF80640ADF80840ADF8A7
:100360000C400C20ADF80A000A4C6946204600F00B
:1003700055FA00F0C7F8012240F22551204600F05E
:1003800032FA0121204600F01BFA06B070BD0000D1
:1003900000000240001001402DE9F0410022012739
:1003A0004FF0030C07FA02F50B682B40AB422CD13F
:1003B000066853000CFA03F4A64306600E79D0F8E1
:1003C00000809E4046EA080606600E79012E01D0A4
:1003D000022E12D18668A64386604E79D0F8088036
:1003E0009E4046EA080686604668AE434660456819
:1003F0008E799640B6B235434560C568A543C56061
:10040000CC799C40C3681C43C460521C102AC9D3D9
:10041000BDE8F08110B54B07DB0E9A40C90800EB30
:100420008100016A0F249C40A1430162016A1143CB
:10043000016210BD0246002012690A4200D001206C
:10044000704700001CB50121052000F0ADF8012027
:10045000009000208DF804008DF8070069460548DB
:10046000FFF79AFF4FF40050009069460248FFF7EB
:1004700093FF1CBD000002400008024070B5044616
:100480000D4629462046FFF7D5FF012801D0002060
:1004900070BD29462046FFF7CDFF0128F9D0012085
:1004A00070BD00002DE9FC410121802000F07CF8A6
:1004B0004FF48064009401208DF8040000218DF831
:1004C00006108DF807008DF805100C4F6946384668
:1004D000FFF762FF6600009669463846FFF75CFF4B
:1004E000A500009569463846FFF756FF03481830C7
:1004F000048006800580BDE8FC810000001C0240ED
:10050000FEE7704708B54FF4A06000F043F82520DF
:100510008DF8000001208DF801008DF802008DF8A3
:100520000300684600F002F808BD000030B50F2354
:10053000C27801250178002A1FD0154A126802F4FA
:10054000E062C2F5E062C2F30722C2F10404D340C4
:100550004278A24084781C401443220101F1E0213A
:1005600081F80024007800F01F018D4040098000D0
:1005700000F1E020C0F8005130BD01F01F008540BF
:100580004809800000F1E020C0F8805130BD000033
:100590000CED00E002490843024908607047000082
:1005A0000000FA050CED00E0054A002903D01168AF
:1005B000014311607047116881431160704700006A
:1005C00030380240054A002903D011680143116008
:1005D0007047116881431160704700004438024041
:1005E00070B5244B196801F00C01234C00291ED072
:1005F000224E04291DD008291DD00460196801F07D
:10060000F00109091E4A545C0168E14041601C6820
:1006100004F4E054A40A145D21FA04F484601B6815
:1006200003F460435B0BD25CD140C16070BD0460D9
:10063000E4E70660E2E70F4A121F1168C1F3805534
:10064000116801F03F0135B1B6FBF1F11468C4F354
:100650008814614305E0B4FBF1F11468C4F3881415
:1006600061431268C2F30142521C5200B1FBF2F125
:100670000160C3E7083802400024F40040787D019F
:1006800014000020704700001CB50021019100916A
:100690002E4A106840F4803010604FF4A043106878
:1006A00000F4003000900198401C0190009810B9AF
:1006B00001989842F3D11068800302D50120009080
:1006C00000E00091009801283FD1204840300168A7
:1006D00041F0805101601E49086840F440400860C4
:1006E0001A48083003680360036843F4004303605A
:1006F000036843F4A0530360041F164B2360136880
:1007000043F08073136013689B01FCD50A6842F4C0
:1007100080320A604A68D203FCD50A6842F400328B
:100720000A604A689203FCD50B4A40F205711160D9
:10073000016821F003010160016841F002010160DC
:100740000168C1F381010229FAD11CBD00380240C1
:1007500000700040195A4007003C024010B500F0FC
:10076000D3FD02F097F8BDE8104000F0E1BD0000B5
:1007700010B50F48016841F0010101600C4A0021E9
:100780000832116002680B4B1A400260031D0A4ACE
:100790001A60026822F48022026005480C30016071
:1007A000FFF772FF05494FF00060086010BD0000C0
:1007B00000380240FFFFF6FE1030002408ED00E094
:1007C000002904D0818941F40051818170478189D9
:1007D00021F40051818170470246002012880A42AC
:1007E00000D00120704710B540F66A13C1F34213E0
:1007F00001F01F040121A140012B07D0022B07D0DB
:1008000014303AB102680A43026010BD0C30F8E7B8
:100810001030F6E702688A43026010BD7FB50446D7
:100820000D46208A20F44051E88808432082A089A0
:1008300041F20C618843A9882A8911436A890243DD
:100840001143A181A08A20F44071A8890843A082A5
:100850006846FFF7C5FE1E48844202D01D48844208
:1008600001D1039800E00298A189090408D500EBA2
:10087000C00101EB001029684900B0FBF1F007E06E
:1008800000EBC00101EB001029688900B0FBF1F01A
:100890006422B0FBF2F109010B096FF018056B43FC
:1008A00000EB8300A3891D044FF0320307D503EB4F
:1008B000C000B0FBF2F000F00700084306E003EBD5
:1008C0000010B0FBF2F000F00F00084320817FBD64
:1008D0000010014000140140C1F3080181807047FD
:1008E000FEE70000002807D00F4910F0FF0F05D0E9
:1008F000C0B2085C401C70470020704710F47F4F66
:1009000004D0C0F30720085C0930704710F47F0F53
:1009100004D0C0F30740085C1130704701EB106051
:1009200000781930704700007930000802E008C8EC
:10093000121F08C1002AFAD170477047002001E059
:1009400001C1121F002AFBD1704700000348016853
:10095000814201D00120704700207047B400002080
:100960002DE9FC4109A91F4662C9089B044604F110
:1009700014004060006022626762A362E1620A467E
:100980002321184600F0ABFED4E90A014218D4E94D
:100990000801121F114B00F099FCE061202D04D3D7
:1009A0009E220F490FA000F059FA3034A5716571ED
:1009B0000020A060E66026612060207120646064F1
:1009C000303C0090019023460F4A214604F1440038
:1009D00002F002F80020BDE8FC810000B523000809
:1009E000823200087072696F72697479203C2052FB
:1009F000545F5448524541445F5052494F52495404
:100A0000595F4D41580000008D27000810B5029C29
:100A100024F001044472C1610262002181624362D8
:100A200000EBC102143252601260491C0129F7DB4D
:100A300010BD10B5002200EBC2011431D1E9004312
:100A40006360D1E90034236049600960521C012AC7
:100A5000F1DB10BD2DE9FC411DA000F0C3FC25A079
:100A600000F0C0FC2EA000F0BDFC002314222821C1
:100A700034A000F057FE354CA06010B134A000F057
:100A8000B1FC14260320CDE900064FF400773B4665
:100A90000022354935A001F064FC20604FF0FF359D
:100AA00088B101F0EDFD0220CDE900063B460022B1
:100AB000304931A001F055FC606030B101F0E0FD3B
:100AC0000020BDE8FC812846FBE72846F9E7000046
:100AD0005468697320697320612074657374206F92
:100AE00066206D6573736167652071756575652135
:100AF0000A0A00005072657373204B455931206F0C
:100B000072204B45593220746F2073656E642074D7
:100B10006865206D6573736167652E0A00000000CB
:100B200072656365697665CFDFB3CCBDD3CAD5CFB7
:100B3000FBCFA2D4DAB4AEBFDABDF8D0D0BBD8CFE9
:100B4000D42E0A00746573745F6D71002400002058
:100B5000CFFBCFA2B6D3C1D0B4B4BDA8B3C9B9A698
:100B6000A3A10A0A00000000A10D000872656365D8
:100B700069766500852E000873656E6400000000CC
:100B800010B500F0B1F9BDE81040FFF763BF0000F9
:100B900070B504461F4D2868844204D2A2221E4923
:100BA0001EA000F05BF96868844204D3A3221A49AE
:100BB00022A000F053F9608820B1A42216492AA08F
:100BC00000F04CF960682968084484420FD04288DC
:100BD0006AB96A6890420AD0AA68824200D1AC60C1
:100BE00042686260436801F10800621A1A50A06806
:100BF0000844A0420CD04288002A09D1AA68A24227
:100C000000D1A86062684260401A626808315050A2
:100C100070BD000040000020A33100082872745FFE
:100C200075696E74385F74202A296D656D203E3DAC
:100C300020686561705F7074720000002872745FD4
:100C400075696E74385F74202A296D656D203C20AB
:100C50002872745F75696E74385F74202A2968651C
:100C600061705F656E6400006D656D2D3E75736526
:100C700064203D3D203000002DE9FF4FDDE90DB639
:100C80000F9D6C0602D5DFF814A103E0DFF80CA17C
:100C9000AAF1110AEC0601D525F00105EC0702D0F6
:100CA0004FF0300901E04FF020090027AC070BD5C9
:100CB000002A02DA2D27524206E06C0701D52B27C5
:100CC00002E02C0700D520270024EE467AB9302216
:100CD00001248DF800200CE00A2B15D002F00F083B
:100CE0001209A4461AF80880641C0EF80C80002A29
:100CF000F2D1B44200DD2646ABEB060215F0110F2F
:100D00004FF0200309D016E04FF00A0CB2FBFCF8BC
:100D10000CFB1828B2FBFCF2E3E73FB1002A05DD2B
:100D2000521E03E0884200D80370401CB2F1000C50
:100D3000A2F10102F6DC27B1884201D80770521EE9
:100D4000401CED0605D508E0884201D880F80090E7
:100D5000401C151EA2F10102F6DC302703E0884298
:100D600000D80770401C3546761EA542F7DC05E02A
:100D7000884202D81EF804500570401C251EA4F1BC
:100D80000104F5DC03E0884200D80370401C141E07
:100D9000A2F10102F7DC04B0BDE8F08F8A3100084F
:100DA00008B50B4C4FF0FF352B4604226946A0686E
:100DB00000F066FD014631B106A000F013FBC8202B
:100DC00001F0F5FAF0E70BA0009900F00BFBF6E755
:100DD00024000020CAFDBEDDBDD3CAD5B3F6B4EDF4
:100DE000A3ACB4EDCEF3B4FAC2EBA3BA307825319C
:100DF000780A0000B1BEB4CEBDD3CAD5B5BDB5C466
:100E0000CAFDBEDDCAC7A3BA25640A001CB51420FA
:100E10000A21CDE900104FF400730022074908A011
:100E200001F09FFA044624B9D122074907A000F037
:100E300015F82046BDE81C4001F022BC810B0008DB
:100E40006D61696E00000000402F00087469642025
:100E5000213D2052545F4E554C4C000038B50D4694
:100E6000002100910A494C68002C05D001B02946A8
:100E7000A446BDE830406047134601462A4605A017
:100E800000F0B0FA9DF800000028FBD038BD00004B
:100E900038000020282573292061737365727469F6
:100EA0006F6E206661696C65642061742066756E82
:100EB0006374696F6E3A25732C206C696E65206EC1
:100EC000756D6265723A2564200A000070B5044CA5
:100ED000044D02E020688047241DAC42FAD370BD67
:100EE0008C3400089034000870B5044C044D02E0C6
:100EF00020688047241DAC42FAD370BD90340008AE
:100F00009434000810B5FFF76DF9044A5188491C64
:100F10005180BDE81040FFF769B90000A80000202B
:100F200010B5FFF75FF9094A5188491E09B251808F
:100F3000002907DC00215180FFF758F9BDE8104077
:100F400000F040BFBDE81040FFF750B9A8000020F6
:100F500070B50446FFF746F9054600F0E3F948B1DD
:100F6000334934A000F03EFA40F2292230493BA038
:100F7000FFF774FF2846FFF739F9002C57D0A00778
:100F800005D040F22D222A4935A0FFF767FF414DD9
:100F90002868844202D36868844205D340F22E2236
:100FA00023493D48FFF75AFF286884423FD36868C9
:100FB00084423CD20C3C4FF0FF31384800F0FAFF3D
:100FC00060884FF4F55610B12088B04208D034A0A4
:100FD00000F008FA23886288214638A000F002FA5F
:100FE000608828B940F24D22114940A0FFF736FF32
:100FF0002088B04205D040F24E220D493EA0FFF7B6
:101000002DFF002060802680A868844200D2AC605A
:1010100029686068611A401A2969081A28612046FF
:10102000FFF7B6FDBDE870401C4800F0A3BF70BDDF
:101030009B31000846756E6374696F6E5B25735D46
:10104000207368616C6C206E6F74206E6520757300
:10105000656420696E204953520A00003000000088
:1010600028282872745F75696E7433325F74297230
:101070006D656D292026202852545F414C49474E0A
:101080005F53495A45202D20312929203D3D2030EC
:101090000000000040000020E4330008D0120020CF
:1010A000746F2066726565206120626164206461EE
:1010B000746120626C6F636B3A0A00006D656D3A73
:1010C000203078253038782C207573656420666C64
:1010D00061673A2025642C206D6167696320636F26
:1010E00064653A203078253034780A006D656D2DBE
:1010F0003E757365640000006D656D2D3E6D616722
:101100006963203D3D20484541505F4D414749437B
:101110000000000000487047D800002000487047D9
:10112000D810002010B513484FF47A710068B0FB56
:10113000F1F0401EB0F1807F09D24FF0E02148610C
:101140000D4AF02010700020886107200861FFF729
:10115000A9F9FFF7CDF8FFF775F9FFF7B7FEFFF72D
:10116000DDFF0446FFF7D6FF2146BDE8104001F041
:1011700039B800000000002023ED00E070B50446FF
:10118000FFF7C0FE0F4D16E00A2809D10D212846B1
:10119000FFF7A2FB80212846FFF71EFB0028F9D0AD
:1011A00014F8011B2846FFF797FB80212846FFF71C
:1011B00013FB0028F9D020780028E5D1BDE8704065
:1011C000FFF7AEBE0010014010B504461748016895
:1011D000002903D020468847002826D014A0E169C2
:1011E00000F000F916A0A16900F0FCF818A06169F0
:1011F00000F0F8F81AA0216900F0F4F81CA0E168EA
:1012000000F0F0F81EA0A16800F0ECF820A06168E2
:1012100000F0E8F822A0216800F0E4F801F0F6F907
:10122000014623A000F0DEF8FEE710BDC800002054
:101230007073723A203078253038780A0000000048
:101240002070633A203078253038780A000000009A
:10125000206C723A203078253038780A000000007F
:101260007231323A203078253038780A0000000098
:101270007230333A203078253038780A0000000088
:101280007230323A203078253038780A0000000079
:101290007230313A203078253038780A000000006A
:1012A0007230303A203078253038780A000000005B
:1012B00068617264206661756C74206F6E2074685A
:1012C000726561643A2025730A00000070B5064615
:1012D000121D22F00700A0F1400528460022094C0B
:1012E00040F82240521C102AFAD3016200214162C8
:1012F0008162C1620163436386634FF08071C163A1
:10130000284670BDEFBEADDE10B5FEF76BFF044A98
:101310001178491C1170BDE81040FEF767BF00004E
:10132000340000200148007870470000340000209D
:1013300010B5FEF757FF044A1178491E1170BDE839
:101340001040FEF753BF00003400002010B50068C5
:10135000143801F029F9002010BD70B505464FF092
:10136000FF340AE0FEF73EFF06462868143804639F
:1013700001F01AF93046FEF739FF284600F060F810
:101380000028EFD0002070BD2DE9F04105460E4643
:101390001446304601F0C4F906F1140714B1012CCB
:1013A0001DD104E03946284600F043F817E02C68C8
:1013B0000DE0A4F1140096F8351090F83520914214
:1013C00004D23946143000F034F802E02468AC420C
:1013D000EFD1AC4203D13946284600F02AF800206C
:1013E000BDE8F0810FB408B503AB00937F21054839
:1013F000029A01F0E1FB0348FFF7C0FE01B05DF87F
:1014000014FB0000501200200268516002680A605C
:101410000160486070470268516002680A600160BC
:10142000486070470268516002680A600160486065
:1014300070474268116042684A60416008607047C6
:101440000168814201D10120704700207047016886
:10145000814201D10120704700207047D0E900216E
:101460005160D0E900121160406000607047D0E91F
:1014700000215160D0E900121160406000607047A7
:101480002DE9F0470446FEF7ADFE0546FFF74AFF9B
:1014900048B1594959A0FFF7A5FF4FF48B7256493F
:1014A00060A0FFF7DBFC2846FEF7A0FE4CB1E41C71
:1014B00024F003055C4EF068854204D90020BDE8A5
:1014C000F0870020FBE70C2D00D20C254FF0FF31F8
:1014D000564800F06FFDB7683168781AD6F80CC02E
:1014E000ACEB05027FE00C186388002B7AD16368AF
:1014F0001B1A0C3BAB4275D362684FF00109131AFB
:101500000C3B05F118024FF4F558934221D34319CF
:101510000C33CA18A2F800804FF0000AA2F802A00B
:10152000D4F804A0C2F804A090606360A4F802900C
:1015300050680CF10C0C604502D001F10802835098
:10154000306928440C303061726982420DD270617A
:101550000BE0A4F802906068621A801A32691044A5
:1015600030617269824200D27061A4F80080BC428E
:1015700014D1726802E040680844B060B0684388E3
:101580000BB19042F7D1B168914207D0408828B1A1
:1015900040F28312184926A0FFF760FC234800F0B0
:1015A000E9FC601971680C30884205D940F2871255
:1015B00011492948FFF752FC04F10C05A90705D091
:1015C0004FF4C4720C492548FFF748FCA10707D027
:1015D00040F28912084900E004E021A0FFF73EFC38
:1015E00028466CE7606882423FF67DAF0F4800F006
:1015F000C1FC002063E70000C231000846756E633D
:1016000074696F6E5B25735D207368616C6C206E0E
:101610006F74206E65207573656420696E20495370
:10162000520A00003000000040000020D0120020CC
:1016300028286C66726565203D3D20686561705F95
:10164000656E6429207C7C2028216C667265652D7E
:101650003E757365642929004034000898330008FA
:1016600028282872745F75696E7433325F74296D2F
:10167000656D292026202852545F414C49474E5F12
:1016800053495A45202D20312929203D3D20300045
:1016900030B50346102A1ED301F0030403F00305FE
:1016A0002C430BD017E00C681C604C685C608C68A5
:1016B0009C60CC681031DC601033103A102AF2D2F2
:1016C00002E010C910C3121F042AFAD203E011F875
:1016D000014B03F8014B521E541CF8D130BD10B51C
:1016E0000346CCB2042A15D3810713D1014644EA3C
:1016F000042343EA034305E00B604B608B60CB603F
:101700001031103A102AF7D201E008C1121F042A42
:10171000FBD20B46E1B201E003F8011B521E541C40
:10172000FAD110BD2DE9F04104460D4616461F467C
:10173000FEF758FD8046FFF7F5FD48B1204921A08E
:10174000FFF750FE40F22C721D4928A0FFF786FBE0
:101750004046FEF74BFD2146052000F005FA044601
:10176000BCB167722046143040600060ED1C4FF63B
:10177000FC7005402584B0B260842D1D6843FFF7DE
:101780007FFEE06140B10022A262E262226300209B
:1017900010E02046BDE8F081204600F029F8002046
:1017A000F8E7218CE369091D00FB0131236B0B6015
:1017B0002163401C618C8142F3DCA2842046E9E76E
:1017C0002E30000846756E6374696F6E5B25735D1D
:1017D000207368616C6C206E6F74206E6520757369
:1017E000656420696E204953520A000030000000F1
:1017F00070B50446FEF7F6FC0546FFF793FD48B1C9
:101800000F4910A0FFF7EEFD40F266720C4917A0D9
:10181000FFF724FB2846FEF7E9FC2CB940F2697279
:10182000074913A0FFF71AFB04F11400FFF795FD19
:10183000E069FFF78DFB204600F0FAF9002070BD4B
:101840003B30000846756E6374696F6E5B25735D8F
:10185000207368616C6C206E6F74206E65207573E8
:10186000656420696E204953520A00003000000070
:101870006D7120213D2052545F4E554C4C000000AC
:101880002DE9FF4F81B004461746002C05D140F6E4
:101890003F02564956A0FFF7E1FA029828B94FF4E3
:1018A0000462524956A0FFF7D9FA2FB940F6410217
:1018B0004E4958A0FFF7D2FA002600F0A7FE0546D1
:1018C000FEF790FC8146A08C6FF0010B08B90498DC
:1018D00010B14FF0000866E04846FEF787FC584616
:1018E00005B0BDE8F08FFEF77DFC009000F08EFEA5
:1018F00048B93E494AA0FFF775FD40F657023B49FB
:1019000046A0FFF7ABFAFEF76DFC8246FFF70AFD33
:1019100048B1364950A0FFF765FD40F657023349FC
:101920003EA0FFF79BFA5046FEF760FC0098FEF7DA
:101930005DFCC5F830800498F0B1627A294604F164
:101940001400FFF721FD049800280CDD00F09CFF37
:10195000064605F1440004AA0021824600F0E6FF95
:10196000504601F063F84846FEF740FC00F02AFAC2
:10197000286B40B1286BB3E74846FEF737FC584662
:10198000C5F830B0ACE7FEF72DFC8146049800287E
:1019900009DD00F079FF861B0498801B0490002865
:1019A00001DACDF81080A08C00289CD0A56A2868A8
:1019B000A062E06AA84201D1C4F82C80A08C401E2D
:1019C000A0844846FEF712FC208CB84200D207469D
:1019D0003A46291D0298FFF75BFEFEF703FC216BD8
:1019E00029602563FEF702FC002079E760300008DB
:1019F0006D7120213D2052545F4E554C4C0000002B
:101A000062756666657220213D2052545F4E554CCA
:101A10004C00000073697A6520213D2030000000F1
:101A200046756E6374696F6E5B25735D20736861C4
:101A30006C6C206E6F742062652075736564206223
:101A400065666F7265207363686564756C65722086
:101A500073746172740A000046756E6374696F6E08
:101A60005B25735D207368616C6C206E6F74206EF3
:101A700065207573656420696E204953520A000021
:101A80002DE9F04104460F461646002C05D140F2E0
:101A90008F72284928A0FFF7E1F92FB94FF4F262BD
:101AA000244929A0FFF7DAF92EB940F291722149B1
:101AB0002AA0FFF7D3F9208CB04203D24FF0FF30B9
:101AC000BDE8F081FEF78EFB256BA5B12968216387
:101AD000FEF78CFB0020286032463946281DFFF7B0
:101AE000D7FDFEF77FFB0646E06A00B10560E562C0
:101AF000A06A28B105E0FEF779FB6FF00200DFE78E
:101B0000A562A08C401CA08404F114000446FFF7D9
:101B100097FC20B13046FEF769FB0020D0E7204655
:101B2000FFF714FC3046FEF761FB00F04BF9002094
:101B3000C6E70000483000086D7120213D20525456
:101B40005F4E554C4C000000627566666572202140
:101B50003D2052545F4E554C4C00000073697A652D
:101B600020213D20300000002DE9F04106460F46BF
:101B7000FEF738FB0446FFF7D5FB48B11A491BA016
:101B8000FFF730FC40F24512174922A0FFF766F933
:101B90002046FEF72BFB304600F0B0F805462DB985
:101BA00040F2511210491CA0FFF758F9E868FFF7FE
:101BB00067FC0446ACB126720020607208223946E8
:101BC000204600F0FBFAFEF70DFB064604F10C017F
:101BD000281DFFF719FC3046FEF708FB2046BDE83C
:101BE000F0810020FBE700000132000846756E63BB
:101BF00074696F6E5B25735D207368616C6C206E19
:101C00006F74206E65207573656420696E2049537A
:101C1000520A000030000000696E666F726D6174D8
:101C2000696F6E20213D2052545F4E554C4C000090
:101C300070B50446002C05D140F287120D490EA064
:101C4000FFF70CF9207A000605D54FF4C472094954
:101C50000EA0FFF703F9FEF7C5FA054604F10C00E4
:101C6000FFF7FCFB2846FEF7C1FA2046BDE87040AE
:101C7000FFF76EB9143200086F626A656374202141
:101C80003D2052545F4E554C4C00000021286F629D
:101C90006A6563742D3E7479706520262052545F06
:101CA0004F626A6563745F436C6173735F53746101
:101CB000746963290000000070B50446002C05D14A
:101CC0004FF49472074908A0FFF7C8F8FEF78AFAA4
:101CD000054604F10C00FFF7C1FB2846BDE8704043
:101CE000FEF784BAF03100086F626A6563742021E0
:101CF0003D2052545F4E554C4C0000000021074AD5
:101D000002EB01131B78834202D102EB01107047F2
:101D1000491C0529F4DB0020704700005800002012
:101D20002DE9F04105460E4617463046FFF7E6FF1F
:101D300004462CB94FF483720C490DA0FFF78EF8BE
:101D400046F08000287208223946284600F036FA0C
:101D5000FEF748FA064605F10C01201DFFF754FB7B
:101D60003046BDE8F041FEF741BA0000E13100081D
:101D7000696E666F726D6174696F6E20213D2052CD
:101D8000545F4E554C4C000010B50446002C05D154
:101D90004FF4D672054906A0FFF760F8207A0006D6
:101DA00001D5012010BD002010BD00002532000823
:101DB0006F626A65637420213D2052545F4E554C1A
:101DC0004C00000070B5FEF70DFA0546174C608810
:101DD00020B12846BDE87040FEF708BAA068FEF7BB
:101DE00081FD421E124850F8321014396068814259
:101DF00016D0227061600F4A127842B11C311C303B
:101E0000FEF7F7F92846BDE87040FEF7EFB91C3140
:101E10001C30FEF7EEF92846BDE87040FEF7E6B943
:101E20002846BDE87040FEF7E1B90000A800002098
:101E3000F01200203400002010B50446002C05D11B
:101E40004FF49172114912A0FFF708F8FEF7CAF992
:101E5000024614F8340F20F00F00401C2070607808
:101E60001049343C01EBC00104F114004B681860C8
:101E70004B684360486001600B48A16B836819435D
:101E80008160BDE810401046FEF7B0B94E32000840
:101E900074687265616420213D2052545F4E554C38
:101EA0004C000000F0120020A800002070B505468C
:101EB000002D05D14FF4A872134914A0FEF7CEFFF0
:101EC000FEF790F9014605F11404D4E900205060B2
:101ED000D4E9000210606460246095F83500104A6F
:101EE00002EBC0000268824201D1012000E0002024
:101EF00020B10C48AB6B82689A438260BDE87040A9
:101F00000846FEF773B9000068320008746872650D
:101F1000616420213D2052545F4E554C4C0000001E
:101F2000F0120020A80000202DE9F04104460F46E1
:101F300015461E46002C04D1D822094909A0FEF7F7
:101F40008DFF3A4601212046FFF7EAFE2046143075
:101F500040600060A58366720020BDE8F08100004B
:101F60006A2F000873656D20213D2052545F4E5545
:101F70004C4C00002DE9F04104460025FEF732F9F3
:101F8000064604F114000746FFF75AFA40B1A08B49
:101F9000401CA0833046FEF729F9012D05D006E04C
:101FA0003846FFF7D3F90125F4E7FFF70BFF0020D0
:101FB000BDE8F0812DE9F3410446002C05D140F243
:101FC0004D12304930A0FEF749FFFEF70BF90646E7
:101FD000A08B28B1401EA0833046FEF707F94FE0E2
:101FE000019840B1FEF7FEF8074600F00FFB40F203
:101FF0006D1538B10FE03046FEF7F8F86FF00100CC
:10200000BDE8FC811F4924A0FFF7ECF92A461D49D1
:102010002FA0FEF723FFFEF7E5F88046FFF782F9D1
:1020200040B118492BA0FFF7DDF92A46154928A031
:10203000FEF714FF4046FEF7D9F83846FEF7D6F80B
:1020400000F0E4FA054600202863627A294604F18C
:102050001400FFF799F90198002809DD05F1440003
:1020600001AA0021044600F061FC204600F0DEFCDD
:102070003046FEF7BBF8FFF7A5FE286B0028BFD15E
:102080000020BDE7A02F000873656D20213D205280
:10209000545F4E554C4C000046756E6374696F6E0C
:1020A0005B25735D207368616C6C206E6F742062B9
:1020B000652075736564206265666F726520736361
:1020C000686564756C65722073746172740A0000CF
:1020D0003000000046756E6374696F6E5B25735D3A
:1020E000207368616C6C206E6F74206E6520757350
:1020F000656420696E204953520A000008B509A0A2
:10210000FFF770F90AA0FFF76DF912A00323009002
:102110000022194612A0FFF765F9BDE8084018A093
:10212000FFF760B90A205C207C202F0A0000000025
:102130002D205254202D20202020205468726561CB
:1021400064204F7065726174696E6720537973748F
:10215000656D0A004E6F7620323020323031390002
:10216000202F207C205C202020202025642E256428
:102170002E2564206275696C642025730A000000B6
:102180002032303036202D203230313820436F70ED
:102190007972696768742062792072742D7468722C
:1021A000656164207465616D0A000000014600E00D
:1021B000491C0A78002AFBD1081A704710B5002A7A
:1021C00007D0034611F8014B03F8014B14B1521E1E
:1021D000F8D110BD002101E003F8011B521EFBD114
:1021E00010BD00002DE9F04106460F46F01C20F01E
:1021F000030427F00305FDF7F5FF8046FFF792F88B
:1022000040B11B491BA0FFF7EDF8D322184923A0CA
:10221000FEF724FE4046FDF7E9FF182D21D9A5F170
:102220001800A0421DD3291B1D4D1839E9602C60F0
:102230004FF4F55222800C3161600020A060608074
:1022400060682044686002800122428041608160B1
:10225000002314A11548FFF767FE2868A860BDE8B1
:10226000F0813A463146BDE8F04111A0FFF7BAB817
:10227000AE31000846756E6374696F6E5B25735DE1
:10228000207368616C6C206E6F74206E65207573AE
:10229000656420696E204953520A00003000000036
:1022A000400000206865617000000000D01200202E
:1022B0006D656D20696E69742C206572726F722075
:1022C000626567696E20616464726573732030783B
:1022D00025782C20616E6420656E642061646472D0
:1022E00065737320307825780A00000010B50A4B1A
:1022F00000245C800020094A02EBC00149600960AB
:10230000401C2028F8DB1F2018705C609C6002488D
:102310000C304060006010BDA8000020F0120020CA
:1023200010B5074CA068FEF7DDFA401E054951F8CC
:10233000300014386060BDE810401C30FDF787BFE6
:10234000A8000020F01200200020044A02EBC00187
:1023500049600960401C0028F8D07047C000002088
:1023600070472DE9FF478046DDE90C6789469246B4
:102370001D4641460020FFF7F7FB044620000FD022
:102380002846FFF77DF868B18DE8E10053464A46DC
:1023900041462046FEF7E4FA204604B0BDE8F08747
:1023A0000020FAE72046FFF743FC0020F5E700F0A5
:1023B00033B9000070B513480468FDF713FF0546F4
:1023C0002046FFF773FD042084F8340004F1440034
:1023D00000F0DEFA2046FFF7D7FC012801D1206F7C
:1023E00058B104F114010848FFF715F82846FDF725
:1023F000FDFEBDE87040FFF7E5BC2046FFF75CFC42
:10240000F4E70000AC000020B400002000F002F867
:10241000FCE7000070B539E0FDF7E4FE0446FEF786
:1024200081FF40B1224923A0FEF7DCFF662220494C
:102430002AA0FEF713FD2046FDF7D8FEFDF7D2FED9
:102440000646FEF783FA68B325480468A4F114052C
:10245000D4E900104860D4E9000108606460246099
:10246000FEF750FD296F09B1284688472846FFF737
:102470008BFC01280FD0FEF753FD3046FDF7B6FE6A
:10248000A86AFEF765FD2846FFF7D2FBFEF75EFA65
:102490000028C1D170BDFEF743FD3046BDE8704055
:1024A000FDF7A4BE3046BDE87040FDF79FBE0000BA
:1024B000542F000846756E6374696F6E5B25735DFB
:1024C000207368616C6C206E6F74206E652075736C
:1024D000656420696E204953520A000030000000F4
:1024E000B40000201FB52020C2001F21094BCDE9F8
:1024F0000210CDE9003207480023074A07A17838C7
:1025000000F010F804B00348BDE81040783800F03F
:10251000B7B80000501100200D2400087469646CE5
:10252000650000002DE9FF5F0746DDE90F86119D7C
:102530000E9C894692469B46002F04D1EE220E49FE
:102540000EA0FEF78BFC24B9EF220B4910A0FEF77A
:1025500085FC4A4600213846FFF7E2FBCDE90186BB
:102560005B4652464946384603950094FEF7F8F913
:1025700004B0BDE8F09F00009232000874687265F4
:10258000616420213D2052545F4E554C4C000000A8
:10259000737461636B5F737461727420213D2052A8
:1025A000545F4E554C4C000070B50446002C05D1CC
:1025B00040F2A5220F4910A0FEF750FC94F8340019
:1025C00000F00F00022802D04FF0FF3070BDFDF781
:1025D00009FE054604F11400FEF749FF04F144002A
:1025E00000F0BEFA2846FDF701FE2046FFF724FC66
:1025F000002070BD09330008746872656164202191
:102600003D2052545F4E554C4C000000014800687C
:1026100070470000AC000020F1B5FDF7E3FD054672
:10262000104804682CB94FF4FD720F490FA0FEF753
:1026300015FC204600F074F804F144006A460021BD
:10264000064600F073F9304600F0F0F92846FDF731
:10265000CDFDFFF7B7FB206B801C00D1206300206D
:10266000F8BD0000AC000020D53200087468726527
:10267000616420213D2052545F4E554C4C000000B7
:1026800010B50446002C05D14FF48A72104911A0F0
:10269000FEF7E4FB94F83400000705D040F2151271
:1026A0000B4911A0FEF7DAFB3434A07860700121E9
:1026B00081406160022004F834092046FFF774FF6E
:1026C000FFF7A4FF08B1FFF77DFB002010BD00005D
:1026D000A132000874687265616420213D20525463
:1026E0005F4E554C4C000000287468726561642D83
:1026F0003E7374617420262052545F544852454101
:10270000445F535441545F4D41534B29203D3D207C
:1027100052545F5448524541445F494E4954000069
:1027200070B50446002C05D140F27B22114912A05D
:10273000FEF794FB94F8340000F00F00012802D05B
:102740004FF0FF3070BDFDF74DFD054694F83400A5
:1027500020F00F00801C84F834002046FFF7A6FB11
:1027600004F1440000F0FCF92846FDF73FFD00208D
:1027700070BD0000F7320008746872656164202142
:102780003D2052545F4E554C4C00000010B504469D
:10279000002C05D140F2D1220E490FA0FEF75EFBBE
:1027A00094F8340000F00F00022805D040F2D22245
:1027B00008490EA0FEF752FB6FF00100206304F100
:1027C0001400FEF754FE2046FFF736FBBDE810402C
:1027D000FFF7F8BA1A330008746872656164202143
:1027E0003D2052545F4E554C4C00000028746872D6
:1027F0006561642D3E7374617420262052545F54C9
:1028000048524541445F535441545F4D41534B2915
:10281000203D3D2052545F5448524541445F53553A
:102820005350454E4400000070B5FDF7DBFC0646F2
:102830001348046894F8340000F00F0001281AD1FE
:10284000D4E90501884216D004F114000546FEF7CC
:102850000EFE94F835000B4901EBC00041680D6095
:1028600041686960456028603046FDF7BFFCFFF7AE
:10287000A9FA002070BD3046FDF7B8FC002070BDFD
:10288000AC000020F01200200148006870470000F2
:102890003000002010B509490868401C0860FFF7A7
:1028A000B5FE016C491E016419B9C16B0164FFF7E3
:1028B000BBFFBDE8104000F003B80000300000206E
:1028C00070B5FFF7E1FF0646FDF78CFC054620E0FA
:1028D00015480468143C6FF00041A06A301A884221
:1028E0001CD22046FEF7A5F8D4E907108847FFF769
:1028F000CBFF0646607A810708D5C10706D020F0D5
:1029000001006072204600F091F802E020F0010022
:1029100060720548FEF79BFD0028D9D02846BDE827
:102920007040FDF763BC0000C000002070B5044695
:102930000D461646002C05D140F2C9120E490FA0D3
:10294000FEF78CFA4DB1012D04D0022D08D0032DD5
:102950000FD10AE0606A30600BE03068606208E026
:10296000607A20F00200607203E0607A40F00200BA
:102970006072002070BD00008633000874696D65C8
:102980007220213D2052545F4E554C4C00000000F7
:1029900070B50446002C04D1D122094909A0FEF7E4
:1029A0005DFAFDF71FFC05462046FEF742F8284673
:1029B000FDF71CFC2046FFF77FF9002070BD0000EA
:1029C0004933000874696D657220213D2052545FBF
:1029D0004E554C4C000000002DE9F8430546DDE95A
:1029E0000894884616461F46002D04D1BC2209498A
:1029F00009A0FEF733FA424609212846FFF790F96D
:102A00004B463A46314628460094FDF7FFFFBDE8A5
:102A1000F88300003B33000874696D657220213D26
:102A20002052545F4E554C4C000000002DE9F843F5
:102A30000446002C05D14FF49872394939A0FEF7AD
:102A40000DFAFDF7CFFB05462046FDF7F2FF607A51
:102A500020F0010060722846FDF7C8FB606A6FF045
:102A60000045A84205D34FF4A0722D4932A0FEF7CD
:102A7000F5F9FFF709FF616A0844A062FDF7B2FBB0
:102A80000746DFF8D880CDF8008000226E4608EBBC
:102A9000C200D0F804C00BE00068A0EBC201A36A3A
:102AA0004969994202D0C91AA94205D346F82200C1
:102AB00056F822006045EFD12AB156F822100831AD
:102AC000531C46F82310521C002AE0D02348001F54
:102AD000D0F8008008F10108C0F8008004F114016A
:102AE0000098FEF79FFC02250EE05FEA88700DD18A
:102AF000C5F1010004EBC001143156F82000FEF7C7
:102B000091FC4FEA98086D1C012DEED9607A40F0D7
:102B1000010060723846FDF769FB0020BDE8F883CC
:102B20006933000874696D657220213D2052545F3D
:102B30004E554C4C0000000074696D65722D3E6965
:102B40006E69745F7469636B203C2052545F544912
:102B5000434B5F4D4158202F20320000C000002021
:102B600070B50446002C05D14FF4D4720C490DA069
:102B7000FEF774F9607AC0070ED0FDF733FB054607
:102B80002046FDF756FF2846FDF730FB607A20F01F
:102B900001006072002070BD4FF0FF3070BD00007A
:102BA0007833000874696D657220213D2052545FAE
:102BB0004E554C4C000000002DE9FF4F83B082467B
:102BC0000AEB01077F1E5446A74201D24FF0FF37A0
:102BD0004FF020094FF0250B12E1252804D0BC420C
:102BE00000D82070641C08E100250599491C059156
:102BF00008782D2814D02B2815D0202816D023286B
:102C000017D0302818D04FF0FF384646059A127872
:102C1000303A0A2A13D205A800F07EF906461AE0D7
:102C200045F01005E1E745F00405DEE745F008054D
:102C3000DBE745F02005D8E745F00105D5E72A2870
:102C400009D1491C0591069840C80690002E02DA69
:102C5000764245F01005059801782E2918D1401CC0
:102C600005900178A1F130020A2A04D205A800F0EB
:102C700053F9804607E02A2905D1401C05900698A3
:102C800050F8048B0690B8F1000F01DA4FF00008FD
:102C90000021059A1078682801D06C2802D10146DD
:102CA000521C05920A23059800786F2871D00CDC1D
:102CB000632820D004DC25286CD058280DD187E06B
:102CC000642801D0692808D186E0702863D0732871
:102CD0002FD0752871D078287CD0BC4201D884F8D8
:102CE00000B0641C05990878002868D0BC4200D860
:102CF0002070641C81E0E80605D507E0BC4201D8DD
:102D000084F80090641C761E002EF7DC069810F8FC
:102D1000041B0690C8B2BC4200D82070641C04E0BA
:102D2000BC4201D884F80090641C761E002EF7DCAB
:102D300063E0069808C8069003B941A31846FFF758
:102D400035FAB8F1000F02DD404500DD4046E906E6
:102D500005D508E0BC4201D884F80090641C3146D7
:102D6000761E8142F6DC002106E0BC4201D81A78CA
:102D70002270641C5B1C491C8142F6DB04E0BC42EF
:102D800001D884F80090641C3146761E8142F6DC3E
:102D900033E01BE014E0701C02D1082645F0010569
:102DA000CDE9006806980295102304C806903946BC
:102DB0002046FDF761FF04461FE00FE00AE028E02F
:102DC000BC4201D884F800B0641C16E0082305E07A
:102DD00045F04005102301E045F002056C291BD0A9
:102DE00068291DD0069804C80690CDE900683946C8
:102DF00020460295FDF740FF04460598401C0590CB
:102E00000598007800287FF4E8AEBC4211D8207005
:102E100010E0491E0591F0E7069804C80690E4E723
:102E2000069830F8041B06908AB2A807DDD512B2C6
:102E3000DBE7387007B0A4EB0A00BDE8F08F0000B4
:102E4000284E554C4C290000002070470020704748
:102E5000002070470020704710B5FDF7C3F9FEF75A
:102E600061F9FFF74BF9FFF76FFAFFF73FFAFDF74C
:102E7000CDFFFFF775FAFFF735FBFFF751FA00209A
:102E800010BD00001CB50120019002200090144DDF
:102E9000144F154C060301212846FDF7EFFA0128CF
:102EA00009D1042201A9A068FEF7EAFD014611B18B
:102EB0000EA0FEF797FA31463846FDF7DFFA0128F3
:102EC00009D104226946A068FEF7DAFD014611B176
:102ED00006A0FEF787FA1420FFF769FADBE7000087
:102EE000000002400008024024000020CAFDBEDDB0
:102EF000B2BBC4DCB7A2CBCDB5BDCFFBCFA2B6D39E
:102F0000C1D0A3A1B4EDCEF3B4FAC2EBCEAAA3BA5A
:102F10002531780A0000000010B5024600206FF04D
:102F20002F0407E04B1C1360097800EB800004EBD2
:102F30004000084411680B78303B0A2BF2D310BDD7
:102F400072745F6170706C69636174696F6E5F69E0
:102F50006E69740072745F7468726561645F69643D
:102F60006C655F6578637574650072745F73656D19
:102F70005F696E69740072745F73656D5F64657418
:102F80006163680072745F73656D5F63726561741D
:102F9000650072745F73656D5F64656C6574650070
:102FA00072745F73656D5F74616B650072745F73DB
:102FB000656D5F636F6E74726F6C0072745F6D62CB
:102FC0005F696E69740072745F6D625F64657461DD
:102FD00063680072745F6D625F637265617465003F
:102FE00072745F6D625F64656C6574650072745FB6
:102FF0006D625F73656E645F776169740072745FA0
:103000006D625F726563760072745F6D625F636F9D
:103010006E74726F6C0072745F6D715F696E69744B
:103020000072745F6D715F646574616368007274CF
:103030005F6D715F6372656174650072745F6D715D
:103040005F64656C6574650072745F6D715F736554
:103050006E640072745F6D715F757267656E740087
:1030600072745F6D715F726563760072745F6D710B
:103070005F636F6E74726F6C0000000100020001EC
:103080000003000100020001000400010002000131
:103090000003000100020001000500010002000120
:1030A0000003000100020001000400010002000111
:1030B00000030001000200010006000100020001FF
:1030C00000030001000200010004000100020001F1
:1030D00000030001000200010005000100020001E0
:1030E00000030001000200010004000100020001D1
:1030F00000030001000200010007000100020001BE
:1031000000030001000200010004000100020001B0
:10311000000300010002000100050001000200019F
:103120000003000100020001000400010002000190
:10313000000300010002000100060001000200017E
:103140000003000100020001000400010002000170
:10315000000300010002000100050001000200015F
:103160000003000100020001000400010002000150
:1031700000030001000200010030313233343536E3
:103180003738396162636465660030313233343513
:10319000363738394142434445460072745F66729F
:1031A000656500706C75675F686F6C65730072743D
:1031B0005F73797374656D5F686561705F696E696F
:1031C000740072745F6D616C6C6F630072745F7217
:1031D00065616C6C6F630072745F63616C6C6F63CC
:1031E0000072745F6F626A6563745F696E69740010
:1031F00072745F6F626A6563745F6465746163684B
:103200000072745F6F626A6563745F616C6C6F6398
:103210006174650072745F6F626A6563745F646590
:103220006C6574650072745F6F626A6563745F6970
:10323000735F73797374656D6F626A65637400722E
:10324000745F6F626A6563745F66696E640072744E
:103250005F7363686564756C655F696E73657274CE
:103260005F7468726561640072745F73636865643B
:10327000756C655F72656D6F76655F7468726561A8
:1032800064005F72745F7468726561645F696E691F
:10329000740072745F7468726561645F696E6974EA
:1032A0000072745F7468726561645F7374617274D4
:1032B00075700072745F7468726561645F646574D0
:1032C0006163680072745F7468726561645F6465ED
:1032D0006C6574650072745F7468726561645F73B5
:1032E0006C6565700072745F7468726561645F63B9
:1032F0006F6E74726F6C0072745F74687265616473
:103300005F73757370656E640072745F7468726564
:1033100061645F726573756D650072745F74687265
:103320006561645F74696D656F75740072745F7454
:1033300068726561645F66696E640072745F746967
:103340006D65725F696E69740072745F74696D6532
:10335000725F6465746163680072745F74696D653F
:10336000725F64656C6574650072745F74696D6525
:10337000725F73746172740072745F74696D6572E8
:103380005F73746F700072745F74696D65725F63F0
:103390006F6E74726F6C00002872745F75696E7462
:1033A00033325F7429282872745F75696E74385FD0
:1033B00074202A296D656D202B2053495A454F46AC
:1033C0005F5354525543545F4D454D29202520529B
:1033D000545F414C49474E5F53495A45203D3D207B
:1033E000300000002872745F75696E74385F742055
:1033F0002A29726D656D203E3D202872745F7569C3
:103400006E74385F74202A29686561705F70747209
:10341000202626202872745F75696E74385F7420C8
:103420002A29726D656D203C202872745F75696E63
:1034300074385F74202A29686561705F656E640066
:103440002872745F75696E7433325F74296D656DAF
:10345000202B2053495A454F465F535452554354ED
:103460005F4D454D202B2073697A65203C3D202817
:1034700072745F75696E7433325F74296865617048
:103480005F656E6400000000552E00084D2E000898
:10349000492E0008512E0008B83400080000002012
:1034A000D80000002C09000890350008D800002042
:1034B000181700003C0900080095BA0A0000000037
:1034C00000000000010203040607080900000000D4
:1034D00001020304010203040607080900000000BA
:1034E00000000000000000000000000000000000DC
:1034F00000000000000000000000000000000000CC
:1035000000000000000000000000000000000000BB
:10351000000000005C0000205C000020780000003B
:10352000010000006C0000206C0000202000000062
:10353000040000007C0000207C000020300000001F
:10354000050000008C0000208C00002034000000EA
:10355000090000009C0000209C0000202C000000BE
:10356000000000000000000000000000000000005B
:10357000000000000000000000000000000000004B
:10358000000000000000000000000000000000003B
:04000005080001AD41
:00000001FF
