:020000040800F2
:10000000E0170020C1010008030500088B0200086A
:1000100001050008EB020008E108000800000000EC
:10002000000000000000000000000000850600083D
:10003000ED02000800000000130200085D07000840
:10004000DB010008DB010008DB010008DB01000820
:10005000DB010008DB010008DB010008DB01000810
:10006000DB010008DB010008DB010008DB01000800
:10007000DB010008DB010008DB010008DB010008F0
:10008000DB010008DB010008DB010008DB010008E0
:10009000DB010008DB010008DB010008DB010008D0
:1000A000DB010008DB010008DB010008DB010008C0
:1000B000DB010008DB010008DB010008DB010008B0
:1000C000DB010008DB010008DB010008DB010008A0
:1000D000DB010008DB010008DB010008DB01000890
:1000E000DB010008DB010008DB010008DB01000880
:1000F000DB010008DB010008DB010008DB01000870
:10010000DB010008DB010008DB010008DB0100085F
:10011000DB010008DB010008DB010008DB0100084F
:10012000DB010008DB010008DB010008DB0100083F
:10013000DB010008DB010008DB010008DB0100082F
:10014000DB010008DB010008DB010008DB0100081F
:10015000DB010008DB010008DB010008DB0100080F
:10016000DB010008DB010008DB010008DB010008FF
:10017000DB010008DB010008DB010008DB010008EF
:10018000DB010008DB010008DB010008DB010008DF
:10019000DB010008DB010008DB010008DB010008CF
:1001A000DB010008DB010008DB010008DFF80CD0F0
:1001B00000F082F800480047DD020008E017002048
:1001C0000648804706480047FEE7FEE7FEE7FEE7F1
:1001D000FEE7FEE7FEE7FEE7FEE7FEE77107000841
:1001E000AD010008EFF3108072B6704780F31088FD
:1001F00070472B4A1368012B04D04FF001031360A2
:10020000284A1060284A116028484FF08051016048
:100210007047EFF3108272B62148016891B14FF038
:10022000000101601F48016829B1EFF3098121E94C
:10023000F00F006801601C4909680968B1E8F00F17
:1002400081F3098882F310884EF0040E7047164936
:10025000086014494FF00000086011494FF0010098
:10026000086013484FF47F01D0F8002041EA0201F2
:1002700001600E484FF0805101600E480068006830
:1002800080F3088861B662B67047EFF3098000B565
:1002900000F0F4FF5DF804EB4EF0040E7047000030
:1002A000C0000020B8000020BC00002004ED00E0E9
:1002B00020ED00E008ED00E0064C074D06E0E068A8
:1002C00040F0010394E8070098471034AC42F6D39D
:1002D000FFF770FF842F0008A42F000810B5FFF768
:1002E00081FF02F0ABFB002010BDFEE7704700006D
:1002F00070B586B00121084600F056F901211020A2
:1003000000F060F900248DF8164001208DF81700E8
:1003100002258DF815508DF81450400204901C4EA3
:1003200004A9304600F038F88DF8145069020491A1
:1003300004A9304600F030F807220A21304600F0C8
:1003400069F807220921304600F064F84FF4E130E3
:100350000090ADF80440ADF80640ADF80840ADF8A7
:100360000C400C20ADF80A000A4C6946204600F00B
:1003700055FA00F0C7F8012240F22551204600F05E
:1003800032FA0121204600F01BFA06B070BD0000D1
:1003900000000240001001402DE9F0410022012739
:1003A0004FF0030C07FA02F50B682B40AB422CD13F
:1003B000066853000CFA03F4A64306600E79D0F8E1
:1003C00000809E4046EA080606600E79012E01D0A4
:1003D000022E12D18668A64386604E79D0F8088036
:1003E0009E4046EA080686604668AE434660456819
:1003F0008E799640B6B235434560C568A543C56061
:10040000CC799C40C3681C43C460521C102AC9D3D9
:10041000BDE8F08110B54B07DB0E9A40C90800EB30
:100420008100016A0F249C40A1430162016A1143CB
:10043000016210BD0246002012690A4200D001206C
:10044000704700001CB50121052000F0ADF8012027
:10045000009000208DF804008DF8070069460548DB
:10046000FFF79AFF4FF40050009069460248FFF7EB
:1004700093FF1CBD000002400008024070B5044616
:100480000D4629462046FFF7D5FF012801D0002060
:1004900070BD29462046FFF7CDFF0128F9D0012085
:1004A00070BD00002DE9FC410121802000F07CF8A6
:1004B0004FF48064009401208DF8040000218DF831
:1004C00006108DF807008DF805100C4F6946384668
:1004D000FFF762FF6600009669463846FFF75CFF4B
:1004E000A500009569463846FFF756FF03481830C7
:1004F000048006800580BDE8FC810000001C0240ED
:10050000FEE7704708B54FF4A06000F043F82520DF
:100510008DF8000001208DF801008DF802008DF8A3
:100520000300684600F002F808BD000030B50F2354
:10053000C27801250178002A1FD0154A126802F4FA
:10054000E062C2F5E062C2F30722C2F10404D340C4
:100550004278A24084781C401443220101F1E0213A
:1005600081F80024007800F01F018D4040098000D0
:1005700000F1E020C0F8005130BD01F01F008540BF
:100580004809800000F1E020C0F8805130BD000033
:100590000CED00E002490843024908607047000082
:1005A0000000FA050CED00E0054A002903D01168AF
:1005B000014311607047116881431160704700006A
:1005C00030380240054A002903D011680143116008
:1005D0007047116881431160704700004438024041
:1005E00070B5244B196801F00C01234C00291ED072
:1005F000224E04291DD008291DD00460196801F07D
:10060000F00109091E4A545C0168E14041601C6820
:1006100004F4E054A40A145D21FA04F484601B6815
:1006200003F460435B0BD25CD140C16070BD0460D9
:10063000E4E70660E2E70F4A121F1168C1F3805534
:10064000116801F03F0135B1B6FBF1F11468C4F354
:100650008814614305E0B4FBF1F11468C4F3881415
:1006600061431268C2F30142521C5200B1FBF2F125
:100670000160C3E7083802400024F40040787D019F
:1006800014000020704700001CB50021019100916A
:100690002E4A106840F4803010604FF4A043106878
:1006A00000F4003000900198401C0190009810B9AF
:1006B00001989842F3D11068800302D50120009080
:1006C00000E00091009801283FD1204840300168A7
:1006D00041F0805101601E49086840F440400860C4
:1006E0001A48083003680360036843F4004303605A
:1006F000036843F4A0530360041F164B2360136880
:1007000043F08073136013689B01FCD50A6842F4C0
:1007100080320A604A68D203FCD50A6842F400328B
:100720000A604A689203FCD50B4A40F205711160D9
:10073000016821F003010160016841F002010160DC
:100740000168C1F381010229FAD11CBD00380240C1
:1007500000700040195A4007003C024010B500F0FC
:100760002DFE01F089FEBDE8104000F03BBE000008
:1007700010B50F48016841F0010101600C4A0021E9
:100780000832116002680B4B1A400260031D0A4ACE
:100790001A60026822F48022026005480C30016071
:1007A000FFF772FF05494FF00060086010BD0000C0
:1007B00000380240FFFFF6FE1030002408ED00E094
:1007C000002904D0818941F40051818170478189D9
:1007D00021F40051818170470246002012880A42AC
:1007E00000D00120704710B540F66A13C1F34213E0
:1007F00001F01F040121A140012B07D0022B07D0DB
:1008000014303AB102680A43026010BD0C30F8E7B8
:100810001030F6E702688A43026010BD7FB50446D7
:100820000D46208A20F44051E88808432082A089A0
:1008300041F20C618843A9882A8911436A890243DD
:100840001143A181A08A20F44071A8890843A082A5
:100850006846FFF7C5FE1E48844202D01D48844208
:1008600001D1039800E00298A189090408D500EBA2
:10087000C00101EB001029684900B0FBF1F007E06E
:1008800000EBC00101EB001029688900B0FBF1F01A
:100890006422B0FBF2F109010B096FF018056B43FC
:1008A00000EB8300A3891D044FF0320307D503EB4F
:1008B000C000B0FBF2F000F00700084306E003EBD5
:1008C0000010B0FBF2F000F00F00084320817FBD64
:1008D0000010014000140140C1F3080181807047FD
:1008E000FEE70000002807D00F4910F0FF0F05D0E9
:1008F000C0B2085C401C70470020704710F47F4F66
:1009000004D0C0F30720085C0930704710F47F0F53
:1009100004D0C0F30740085C1130704701EB106051
:100920000078193070470000642B000802E008C806
:10093000121F08C1002AFAD170477047002001E059
:1009400001C1121F002AFBD1704700000348016853
:10095000814201D00120704700207047A000002094
:100960002DE9FC4109A91F4662C9089B044604F110
:1009700014004060006022626762A362E1620A467E
:100980002321184600F0C0FED4E90A014218D4E938
:100990000801121F114B00F0F3FCE061202D04D37D
:1009A0009E220F490FA000F0B3FA3034A571657193
:1009B0000020A060E66026612060207120646064F1
:1009C000303C0090019023460F4A214604F1440038
:1009D00001F0F4FD0020BDE8FC810000991F000833
:1009E0006D2D00087072696F72697479203C205215
:1009F000545F5448524541445F5052494F52495404
:100A0000595F4D41580000007123000810B5029C49
:100A100024F001044472C1610262002181624362D8
:100A200000EBC102143252601260491C0129F7DB4D
:100A300010BD10B5002200EBC2011431D1E9004312
:100A40006360D1E90034236049600960521C012AC7
:100A5000F1DB10BD194D1A4F1A4C4FF4005601210D
:100A60002846FFF70BFD01280AD117A000F0F6FC7D
:100A7000206801F047FC014649B117A000F0EEFCE8
:100A800031463846FFF7FAFC012804D00EE01BA0DF
:100A900000F0E4FCF4E71EA000F0E0FC206801F0A8
:100AA00075FB014631B11EA000F0D8FC142001F006
:100AB00070FAD4E723A000F0D1FCF7E70000024071
:100AC0000008024024000020B9D2C6F04C45443151
:100AD000CFDFB3CCA3A10A00B9D2C6F04C45443154
:100AE000CFDFB3CCCAA7B0DCA3A1CAA7B0DCB4FAED
:100AF000C2EB30782531780A00000000B9D2C6F088
:100B00004C454431CFDFB3CCB3C9B9A6A3A10A0089
:100B1000BBD6B8B44C454431CFDFB3CCA3A10A0057
:100B2000BBD6B8B44C454431CFDFB3CCCAA7B0DC98
:100B3000A3A1CAA7B0DCB4FAC2EB30782531780A99
:100B400000000000BBD6B8B44C454431CFDFB3CC75
:100B5000B3C9B9A6A3A10A000A4D4FF480644FF4AB
:100B6000FA77AE1E2C80384601F013FA06A000F08A
:100B700075FC3480384601F00CFA0BA000F06EFCD6
:100B8000F0E700001A1C02406C6564315F74687203
:100B90006561642072756E6E696E672C4C454431D8
:100BA0005F4F4E200D0A00006C6564315F746872FF
:100BB0006561642072756E6E696E672C4C454431B8
:100BC0005F4F4646200D0A002DE9FC4116A000F0BB
:100BD00045FC1FA000F042FC14260320CDE90006CE
:100BE0004FF400773B460022274928A001F0ABF9DB
:100BF000284C20604FF0FF3588B101F033FB022014
:100C0000CDE900063B460022234924A001F09BF9D0
:100C1000606030B101F026FB0020BDE8FC81284671
:100C2000FBE72846F9E700005468697320697320E0
:100C3000612074657374206F6620746872656164E6
:100C400073206D616E6167656D656E74210A0A00BF
:100C50007072657373204B45593120746F20737522
:100C60007370656E64207468652074687265616471
:100C70002C20616E64204B45593220746F207265C0
:100C800073756D652E0A0000590B00086C656431A0
:100C90000000000024000020550A00086B65790060
:100CA00010B500F07BF9BDE81040FFF78DBF0000E4
:100CB00070B504461F4D2868844204D2A2221E4902
:100CC0001EA000F025F96868844204D3A3221A49C3
:100CD00022A000F01DF9608820B1A42216492AA0A4
:100CE00000F016F960682968084484420FD04288F1
:100CF0006AB96A6890420AD0AA68824200D1AC60A0
:100D000042686260436801F10800621A1A50A068E4
:100D10000844A0420CD04288002A09D1AA68A24205
:100D200000D1A86062684260401A62680831505081
:100D300070BD00003C0000208E2C00082872745FFB
:100D400075696E74385F74202A296D656D203E3D8B
:100D500020686561705F7074720000002872745FB3
:100D600075696E74385F74202A296D656D203C208A
:100D70002872745F75696E74385F74202A296865FB
:100D800061705F656E6400006D656D2D3E75736505
:100D900064203D3D203000002DE9FF4FDDE90DB618
:100DA0000F9D6C0602D5DFF814A103E0DFF80CA15B
:100DB000AAF1110AEC0601D525F00105EC0702D0D5
:100DC0004FF0300901E04FF020090027AC070BD5A8
:100DD000002A02DA2D27524206E06C0701D52B27A4
:100DE00002E02C0700D520270024EE467AB93022F5
:100DF00001248DF800200CE00A2B15D002F00F081A
:100E00001209A4461AF80880641C0EF80C80002A07
:100E1000F2D1B44200DD2646ABEB060215F0110F0D
:100E20004FF0200309D016E04FF00A0CB2FBFCF89B
:100E30000CFB1828B2FBFCF2E3E73FB1002A05DD0A
:100E4000521E03E0884200D80370401CB2F1000C2F
:100E5000A2F10102F6DC27B1884201D80770521EC8
:100E6000401CED0605D508E0884201D880F80090C6
:100E7000401C151EA2F10102F6DC302703E0884277
:100E800000D80770401C3546761EA542F7DC05E009
:100E9000884202D81EF804500570401C251EA4F19B
:100EA0000104F5DC03E0884200D80370401C141EE6
:100EB000A2F10102F7DC04B0BDE8F08F752C000848
:100EC0001CB514200A21CDE900104FF40073002254
:100ED000074908A001F037F8044624B9D122074990
:100EE00007A000F015F82046BDE81C4001F0BAB993
:100EF000A10C00086D61696E000000008E2A0008D8
:100F000074696420213D2052545F4E554C4C0000C2
:100F100038B50D46002100910A494C68002C05D0D7
:100F200001B02946A446BDE830406047134601465B
:100F30002A4605A000F092FA9DF800000028FBD098
:100F400038BD000034000020282573292061737308
:100F5000657274696F6E206661696C656420617486
:100F60002066756E6374696F6E3A25732C206C6908
:100F70006E65206E756D6265723A2564200A000008
:100F800070B5044C044D02E020688047241DAC423B
:100F9000FAD370BD782F00087C2F000870B5044C80
:100FA000044D02E020688047241DAC42FAD370BD96
:100FB0007C2F0008802F000810B5FFF713F9044AB2
:100FC0005188491C5180BDE81040FFF70FB900005F
:100FD0009400002010B5FFF705F9094A5188491E11
:100FE00009B25180002907DC00215180FFF7FEF88B
:100FF000BDE8104000F0DABCBDE81040FFF7F6B8DD
:101000009400002070B50446FFF7ECF8054600F0A8
:10101000E3F948B1334934A000F020FA40F2292224
:1010200030493BA0FFF774FF2846FFF7DFF8002C9C
:1010300057D0A00705D040F22D222A4935A0FFF74E
:1010400067FF414D2868844202D36868844205D313
:1010500040F22E2223493D48FFF75AFF2868844278
:101060003FD3686884423CD20C3C4FF0FF31384893
:1010700000F092FD60884FF4F55610B12088B04220
:1010800008D034A000F0EAF923886288214638A00D
:1010900000F0E4F9608828B940F24D22114940A0DF
:1010A000FFF736FF2088B04205D040F24E220D49AE
:1010B0003EA0FFF72DFF002060802680A8688442B4
:1010C00000D2AC6029686068611A401A2969081A60
:1010D00028612046FFF7ECFDBDE870401C4800F099
:1010E0003DBD70BD862C000846756E6374696F6ED9
:1010F0005B25735D207368616C6C206E6F74206E6D
:1011000065207573656420696E204953520A00009A
:101110003000000028282872745F75696E743332BD
:101120005F7429726D656D292026202852545F4115
:101130004C49474E5F53495A45202D2031292920DB
:101140003D3D2030000000003C000020D02E000873
:10115000BC120020746F2066726565206120626198
:1011600064206461746120626C6F636B3A0A0000F2
:101170006D656D3A203078253038782C2075736590
:101180006420666C61673A2025642C206D61676974
:101190006320636F64653A203078253034780A0024
:1011A0006D656D2D3E757365640000006D656D2D78
:1011B0003E6D61676963203D3D20484541505F4D6C
:1011C000414749430000000000487047C400002028
:1011D00000487047C410002010B513484FF47A71CE
:1011E0000068B0FBF1F0401EB0F1807F09D24FF0F3
:1011F000E02148610D4AF02010700020886107202E
:101200000861FFF74FF9FFF773F8FFF71BF9FFF7D6
:10121000B7FEFFF7DDFF0446FFF7D6FF2146BDE826
:10122000104000F0D1BD00000000002023ED00E0E0
:1012300070B50446FFF7C0FE0F4D16E00A2809D12D
:101240000D212846FFF748FB80212846FFF7C4FA06
:101250000028F9D014F8011B2846FFF73DFB802138
:101260002846FFF7B9FA0028F9D020780028E5D100
:10127000BDE87040FFF7AEBE0010014010B5044657
:1012800017480168002903D020468847002826D047
:1012900014A0E16900F0E2F816A0A16900F0DEF800
:1012A00018A0616900F0DAF81AA0216900F0D6F8F8
:1012B0001CA0E16800F0D2F81EA0A16800F0CEF8F2
:1012C00020A0616800F0CAF822A0216800F0C6F8EA
:1012D00000F08EFF014623A000F0C0F8FEE710BD2D
:1012E000B40000207073723A203078253038780AC4
:1012F000000000002070633A203078253038780AEA
:1013000000000000206C723A203078253038780ACE
:10131000000000007231323A203078253038780AE7
:10132000000000007230333A203078253038780AD7
:10133000000000007230323A203078253038780AC8
:10134000000000007230313A203078253038780AB9
:10135000000000007230303A203078253038780AAA
:101360000000000068617264206661756C74206F13
:101370006E207468726561643A2025730A0000006B
:1013800070B50646121D22F00700A0F14005284660
:101390000022094C40F82240521C102AFAD3016264
:1013A000002141628162C1620163436386634FF041
:1013B0008071C163284670BDEFBEADDE10B5FEF78B
:1013C00011FF044A1178491C1170BDE81040FEF766
:1013D0000DBF000030000020014800787047000079
:1013E0003000002010B5FEF7FDFE044A1178491EBA
:1013F0001170BDE81040FEF7F9BE0000300000207B
:101400002DE9F04105460E461446304600F07AFFBD
:1014100006F1140714B1012C1DD104E03946284609
:1014200000F043F817E02C680DE0A4F1140096F8E2
:10143000351090F83520914204D23946143000F02E
:1014400034F802E02468AC42EFD1AC4203D1394613
:10145000284600F02AF80020BDE8F0810FB408B556
:1014600003AB00937F210548029A01F097F90348E6
:10147000FFF7DEFE01B05DF814FB00003C12002017
:101480000268516002680A60016048607047026843
:10149000516002680A6001604860704702685160EC
:1014A00002680A60016048607047426811604268E3
:1014B0004A604160086070470168814201D10120A3
:1014C0007047002070470168814201D101207047B8
:1014D00000207047D0E900215160D0E9001211606E
:1014E000406000607047D0E900215160D0E90012EF
:1014F00011604060006070472DE9F0470446FEF738
:1015000071FE0546FFF768FF48B1594959A0FFF73A
:10151000A5FF4FF48B72564960A0FFF7F9FC2846EF
:10152000FEF764FE4CB1E41C24F003055C4EF06849
:10153000854204D90020BDE8F0870020FBE70C2D90
:1015400000D20C254FF0FF31564800F025FBB7685C
:101550003168781AD6F80CC0ACEB05027FE00C18A5
:101560006388002B7AD163681B1A0C3BAB4275D39E
:1015700062684FF00109131A0C3B05F118024FF491
:10158000F558934221D343190C33CA18A2F80080AE
:101590004FF0000AA2F802A0D4F804A0C2F804A0F8
:1015A00090606360A4F8029050680CF10C0C6045E8
:1015B00002D001F108028350306928440C303061B8
:1015C000726982420DD270610BE0A4F802906068EB
:1015D000621A801A3269104430617269824200D204
:1015E0007061A4F80080BC4214D1726802E04068C7
:1015F0000844B060B06843880BB19042F7D1B1683D
:10160000914207D0408828B140F28312184926A0A1
:10161000FFF77EFC234800F0A1FA601971680C30D6
:10162000884205D940F2871211492948FFF770FC1A
:1016300004F10C05A90705D04FF4C4720C492548E4
:10164000FFF766FCA10707D040F28912084900E0C5
:1016500004E021A0FFF75CFC28466CE7606882424A
:101660003FF67DAF0F4800F079FA002063E70000F5
:10167000AD2C000846756E6374696F6E5B25735DF3
:10168000207368616C6C206E6F74206E65207573BA
:10169000656420696E204953520A00003000000042
:1016A0003C000020BC12002028286C667265652072
:1016B0003D3D20686561705F656E6429207C7C20FB
:1016C00028216C667265652D3E7573656429290055
:1016D0002C2F0008842E000828282872745F756952
:1016E0006E7433325F74296D656D2920262028526F
:1016F000545F414C49474E5F53495A45202D203194
:101700002929203D3D20300010B50346CCB2042AE3
:1017100015D3810713D1014644EA042343EA034366
:1017200005E00B604B608B60CB601031103A102AE3
:10173000F7D201E008C1121F042AFBD20B46E1B226
:1017400001E003F8011B521E541CFAD110BD000029
:101750002DE9F04106460F46FEF744FD0446FFF72B
:101760003BFE48B11A491BA0FFF778FE40F2451234
:10177000174922A0FFF7CCFB2046FEF737FD304685
:1017800000F0B0F805462DB940F2511210491CA0E6
:10179000FFF7BEFBE868FFF7AFFE0446ACB1267268
:1017A0000020607208223946204600F0F9FAFEF760
:1017B00019FD064604F10C01281DFFF761FE3046B5
:1017C000FEF714FD2046BDE8F0810020FBE7000095
:1017D000EC2C000846756E6374696F6E5B25735D53
:1017E000207368616C6C206E6F74206E6520757359
:1017F000656420696E204953520A000030000000E1
:10180000696E666F726D6174696F6E20213D205242
:10181000545F4E554C4C000070B50446002C05D169
:1018200040F287120D490EA0FFF772FB207A0006E6
:1018300005D54FF4C47209490EA0FFF769FBFEF706
:10184000D1FC054604F10C00FFF744FE2846FEF7E4
:10185000CDFC2046BDE87040FFF7D4BBFF2C00084C
:101860006F626A65637420213D2052545F4E554C6F
:101870004C00000021286F626A6563742D3E747904
:10188000706520262052545F4F626A6563745F431F
:101890006C6173735F5374617469632900000000A5
:1018A00070B50446002C05D14FF49472074908A086
:1018B000FFF72EFBFEF796FC054604F10C00FFF740
:1018C00009FE2846BDE87040FEF790BCDB2C0008FE
:1018D0006F626A65637420213D2052545F4E554CFF
:1018E0004C0000000021074A02EB01131B788342E1
:1018F00002D102EB01107047491C0429F4DB0020DF
:1019000070470000540000202DE9F04105460E46C6
:1019100017463046FFF7E6FF04462CB94FF48372B2
:101920000C490DA0FFF7F4FA46F080002872082257
:101930003946284600F034FAFEF754FC064605F115
:101940000C01201DFFF79CFD3046BDE8F041FEF77D
:101950004DBC0000CC2C0008696E666F726D61741E
:10196000696F6E20213D2052545F4E554C4C000053
:1019700010B50446002C05D14FF4D672054906A0D7
:10198000FFF7C6FA207A000601D5012010BD00201D
:1019900010BD0000102D00086F626A65637420217D
:1019A0003D2052545F4E554C4C00000070B5FEF780
:1019B00019FC0546174C608820B12846BDE87040E8
:1019C000FEF714BCA068FEF78DFF421E124850F8C7
:1019D000321014396068814216D0227061600F4A5B
:1019E000127842B11C311C30FEF703FC2846BDE8DA
:1019F0007040FEF7FBBB1C311C30FEF7FAFB28469B
:101A0000BDE87040FEF7F2BB2846BDE87040FEF727
:101A1000EDBB000094000020DC120020300000200C
:101A200010B50446002C05D14FF49172114912A053
:101A3000FFF76EFAFEF7D6FB024614F8340F20F0DB
:101A40000F00401C207060781049343C01EBC0014D
:101A500004F114004B6818604B68436048600160F3
:101A60000B48A16B836819438160BDE810401046A4
:101A7000FEF7BCBB392D00087468726561642021D3
:101A80003D2052545F4E554C4C000000DC120020AB
:101A90009400002070B50546002D05D14FF4A872C2
:101AA000134914A0FFF734FAFEF79CFB014605F139
:101AB0001404D4E900205060D4E90002106064608E
:101AC000246095F83500104A02EBC000026882429B
:101AD00001D1012000E0002020B10C48AB6B8268EE
:101AE0009A438260BDE870400846FEF77FBB000065
:101AF000532D000874687265616420213D205254A2
:101B00005F4E554C4C000000DC1200209400002079
:101B10002DE9F04104460F4615461E46002C04D11F
:101B2000D822094909A0FFF7F3F93A4601212046D6
:101B3000FFF7EAFE2046143040600060A58366721D
:101B40000020BDE8F0810000B82A000873656D2010
:101B5000213D2052545F4E554C4C000070B5044658
:101B60000025FEF73FFB064604F11400FFF7A4FC36
:101B700040B1A08B401CA0833046FEF737FB012DFF
:101B800006D007E06069143800F000FB0125F3E798
:101B9000FFF70CFF002070BD2DE9F3410446002C37
:101BA00005D140F24D12304930A0FFF7B1F9FEF7F0
:101BB00019FB0646A08B28B1401EA0833046FEF7D5
:101BC00015FB4FE0019840B1FEF70CFB074600F013
:101BD0000FFB40F26D1538B10FE03046FEF706FB03
:101BE0006FF00100BDE8FC811F4924A0FFF736FC1F
:101BF0002A461D492FA0FFF78BF9FEF7F3FA80461E
:101C0000FFF7EAFB40B118492BA0FFF727FC2A4653
:101C1000154928A0FFF77CF94046FEF7E7FA384659
:101C2000FEF7E4FA00F0E4FA054600202863627A41
:101C3000294604F11400FFF7E3FB0198002809DDB1
:101C400005F1440001AA0021044600F061FC204691
:101C500000F0DEFC3046FEF7C9FAFFF7A7FE286B5E
:101C60000028BFD10020BDE7EE2A000873656D2073
:101C7000213D2052545F4E554C4C000046756E631A
:101C800074696F6E5B25735D207368616C6C206E88
:101C90006F742062652075736564206265666F727B
:101CA00065207363686564756C6572207374617216
:101CB000740A00003000000046756E6374696F6E30
:101CC0005B25735D207368616C6C206E6F74206E91
:101CD00065207573656420696E204953520A0000BF
:101CE00008B509A0FFF7BAFB0AA0FFF7B7FB12A0DF
:101CF000032300900022194612A0FFF7AFFBBDE8B6
:101D0000084018A0FFF7AABB0A205C207C202F0AFD
:101D1000000000002D205254202D2020202020548F
:101D20006872656164204F7065726174696E6720C6
:101D300053797374656D0A004E6F76203139203205
:101D400030313900202F207C205C202020202025CD
:101D5000642E25642E2564206275696C64202573C9
:101D60000A0000002032303036202D203230313849
:101D700020436F7079726967687420627920727489
:101D80002D746872656164207465616D0A000000DD
:101D9000014600E0491C0A78002AFBD1081A704766
:101DA00010B5002A07D0034611F8014B03F8014B88
:101DB00014B1521EF8D110BD002101E003F8011B3F
:101DC000521EFBD110BD00002DE9F04106460F4622
:101DD000F01C20F0030427F00305FEF703FA804609
:101DE000FFF7FAFA40B11B491BA0FFF737FBD322DC
:101DF000184923A0FFF78CF84046FEF7F7F9182D95
:101E000021D9A5F11800A0421DD3291B1D4D183959
:101E1000E9602C604FF4F55222800C3161600020A3
:101E2000A060608060682044686002800122428077
:101E300041608160002314A11548FFF769FE2868FE
:101E4000A860BDE8F0813A463146BDE8F04111A0F6
:101E5000FFF704BB992C000846756E6374696F6EBA
:101E60005B25735D207368616C6C206E6F74206EEF
:101E700065207573656420696E204953520A00001D
:101E8000300000003C000020686561700000000028
:101E9000BC1200206D656D20696E69742C2065721E
:101EA000726F7220626567696E2061646472657327
:101EB0007320307825782C20616E6420656E642054
:101EC0006164647265737320307825780A000000BD
:101ED00010B50A4B00245C800020094A02EBC001C7
:101EE00049600960401C2028F8DB1F2018705C60E6
:101EF0009C6002480C304060006010BD94000020DF
:101F0000DC12002010B5074CA068FEF7EBFC401E69
:101F1000054951F8300014386060BDE810401C30AD
:101F2000FEF795B994000020DC1200200020044A3E
:101F300002EBC00149600960401C0028F8D07047DE
:101F4000AC00002070472DE9FF478046DDE90C67B3
:101F5000894692461D4641460020FFF7F9FB04469C
:101F600020000FD02846FFF7C7FA68B18DE8E100DE
:101F700053464A4641462046FEF7F2FC204604B04E
:101F8000BDE8F0870020FAE72046FFF745FC002077
:101F9000F5E700F033B9000070B513480468FEF7A8
:101FA00021F905462046FFF775FD042084F834002A
:101FB00004F1440000F0DEFA2046FFF7D9FC0128C6
:101FC00001D1206F58B104F114010848FFF75FFAFE
:101FD0002846FEF70BF9BDE87040FFF7E7BC204646
:101FE000FFF75EFCF4E7000098000020A00000204E
:101FF00000F002F8FCE7000070B539E0FEF7F2F8F7
:102000000446FFF7E9F940B1224923A0FFF726FA79
:10201000662220492AA0FEF77BFF2046FEF7E6F85D
:10202000FEF7E0F80646FEF791FC68B32548046821
:10203000A4F11405D4E900104860D4E90001086057
:1020400064602460FEF7B8FF296F09B1284688470D
:102050002846FFF78DFC01280FD0FEF7BBFF304666
:10206000FEF7C4F8A86AFEF7CDFF2846FFF7D4FBB9
:10207000FEF76CFC0028C1D170BDFEF7ABFF304607
:10208000BDE87040FEF7B2B83046BDE87040FEF7DC
:10209000ADB80000A22A000846756E6374696F6EC1
:1020A0005B25735D207368616C6C206E6F74206EAD
:1020B00065207573656420696E204953520A0000DB
:1020C00030000000A00000201FB52020C2001F210A
:1020D000094BCDE90210CDE9003207480023074A39
:1020E00007A1783800F010F804B00348BDE81040AC
:1020F000783800F0B7B800003C110020F11F00084C
:102100007469646C650000002DE9FF5F0746DDE936
:102110000F86119D0E9C894692469B46002F04D146
:10212000EE220E490EA0FEF7F3FE24B9EF220B4972
:1021300010A0FEF7EDFE4A4600213846FFF7E4FB0B
:10214000CDE901865B4652464946384603950094E0
:10215000FEF706FC04B0BDE8F09F00007D2D0008EE
:1021600074687265616420213D2052545F4E554C65
:102170004C000000737461636B5F73746172742050
:10218000213D2052545F4E554C4C000070B5044622
:10219000002C05D140F2A5220F4910A0FEF7B8FE91
:1021A00094F8340000F00F00022802D04FF0FF3006
:1021B00070BDFEF717F8054604F11400FFF793F918
:1021C00004F1440000F0BEFA2846FEF70FF820465E
:1021D000FFF726FC002070BDF42D000874687265BE
:1021E000616420213D2052545F4E554C4C0000004C
:1021F000014800687047000098000020F1B5FDF725
:10220000F1FF0546104804682CB94FF4FD720F49E0
:102210000FA0FEF77DFE204600F074F804F14400A4
:102220006A460021064600F073F9304600F0F0F9E6
:102230002846FDF7DBFFFFF7B9FB206B801C00D1C0
:1022400020630020F8BD000098000020C02D000889
:1022500074687265616420213D2052545F4E554C74
:102260004C00000010B50446002C05D14FF48A72D2
:10227000104911A0FEF74CFE94F83400000705D079
:1022800040F215120B4911A0FEF742FE3434A0783B
:102290006070012181406160022004F83409204609
:1022A000FFF774FFFFF7A4FF08B1FFF77FFB0020E3
:1022B00010BD00008C2D00087468726561642021D7
:1022C0003D2052545F4E554C4C00000028746872FB
:1022D0006561642D3E7374617420262052545F54EE
:1022E00048524541445F535441545F4D41534B293B
:1022F000203D3D2052545F5448524541445F494E71
:102300004954000070B50446002C05D140F27B22F0
:10231000114912A0FEF7FCFD94F8340000F00F0004
:10232000012802D04FF0FF3070BDFDF75BFF05467E
:1023300094F8340020F00F00801C84F8340020460C
:10234000FFF7A8FB04F1440000F0FCF92846FDF774
:102350004DFF002070BD0000E22D0008746872651A
:10236000616420213D2052545F4E554C4C000000CA
:1023700010B50446002C05D140F2D1220E490FA021
:10238000FEF7C6FD94F8340000F00F00022805D0D7
:1023900040F2D22208490EA0FEF7BAFD6FF001000C
:1023A000206304F11400FFF79EF82046FFF738FB86
:1023B000BDE81040FFF7FABA052E00087468726590
:1023C000616420213D2052545F4E554C4C0000006A
:1023D000287468726561642D3E73746174202620D0
:1023E00052545F5448524541445F535441545F4DE9
:1023F00041534B29203D3D2052545F5448524541A2
:10240000445F53555350454E4400000070B5FDF7EE
:10241000E9FE06461348046894F8340000F00F0003
:1024200001281AD1D4E90501884216D004F114001C
:102430000546FFF758F894F835000B4901EBC0004A
:1024400041680D6041686960456028603046FDF76D
:10245000CDFEFFF7ABFA002070BD3046FDF7C6FE9B
:10246000002070BD98000020DC12002001480068A8
:10247000704700002C00002010B509490868401C76
:102480000860FFF7B5FE016C491E016419B9C16B04
:102490000164FFF7BBFFBDE8104000F003B8000087
:1024A0002C00002070B5FFF7E1FF0646FDF79AFE0D
:1024B000054620E015480468143C6FF00041A06A0E
:1024C000301A88421CD22046FEF7B3FAD4E907102E
:1024D0008847FFF7CBFF0646607A810708D5C1071A
:1024E00006D020F001006072204600F091F802E072
:1024F00020F0010060720548FEF7E5FF0028D9D002
:102500002846BDE87040FDF771BE0000AC00002019
:1025100070B504460D461646002C05D140F2C9128E
:102520000E490FA0FEF7F4FC4DB1012D04D0022D91
:1025300008D0032D0FD10AE0606A30600BE03068EC
:10254000606208E0607A20F00200607203E0607A66
:1025500040F002006072002070BD0000712E000883
:1025600074696D657220213D2052545F4E554C4C6C
:102570000000000070B50446002C04D1D1220949A6
:1025800009A0FEF7C5FCFDF72DFE05462046FEF727
:1025900050FA2846FDF72AFE2046FFF781F9002071
:1025A00070BD0000342E000874696D657220213DF5
:1025B0002052545F4E554C4C000000002DE9F8436A
:1025C0000546DDE90894884616461F46002D04D1CD
:1025D000BC22094909A0FEF79BFC42460921284676
:1025E000FFF792F94B463A46314628460094FEF7EB
:1025F0000DFABDE8F8830000262E000874696D65A9
:102600007220213D2052545F4E554C4C000000007A
:102610002DE9F8430446002C05D14FF4987239494E
:1026200039A0FEF775FCFDF7DDFD05462046FEF7F7
:1026300000FA607A20F0010060722846FDF7D6FDAE
:10264000606A6FF00045A84205D34FF4A0722D498F
:1026500032A0FEF75DFCFFF709FF616A0844A06243
:10266000FDF7C0FD0746DFF8D880CDF800800022D6
:102670006E4608EBC200D0F804C00BE00068A0EB87
:10268000C201A36A4969994202D0C91AA94205D375
:1026900046F8220056F822006045EFD12AB156F8DC
:1026A00022100831531C46F82310521C002AE0D097
:1026B0002348001FD0F8008008F10108C0F800800E
:1026C00004F114010098FEF7E9FE02250EE05FEA2E
:1026D00088700DD1C5F1010004EBC001143156F82A
:1026E0002000FEF7DBFE4FEA98086D1C012DEED9A5
:1026F000607A40F0010060723846FDF777FD0020F7
:10270000BDE8F883542E000874696D657220213D80
:102710002052545F4E554C4C0000000074696D65AA
:10272000722D3E696E69745F7469636B203C205240
:10273000545F5449434B5F4D4158202F20320000D5
:10274000AC00002070B50446002C05D14FF4D472C3
:102750000C490DA0FEF7DCFB607AC0070ED0FDF738
:1027600041FD05462046FEF764F92846FDF73EFD8B
:10277000607A20F001006072002070BD4FF0FF30E1
:1027800070BD0000632E000874696D657220213DE4
:102790002052545F4E554C4C000000002DE9FF4F75
:1027A00083B082460AEB01077F1E5446A74201D23E
:1027B0004FF0FF374FF020094FF0250B12E125288D
:1027C00004D0BC4200D82070641C08E100250599A3
:1027D000491C059108782D2814D02B2815D02028C5
:1027E00016D0232817D0302818D04FF0FF3846468F
:1027F000059A1278303A0A2A13D205A800F033F964
:1028000006461AE045F01005E1E745F00405DEE76D
:1028100045F00805DBE745F02005D8E745F0010560
:10282000D5E72A2809D1491C0591069840C8069089
:10283000002E02DA764245F01005059801782E291F
:1028400018D1401C05900178A1F130020A2A04D267
:1028500005A800F008F9804607E02A2905D1401CA8
:102860000590069850F8048B0690B8F1000F01DA35
:102870004FF000080021059A1078682801D06C28D4
:1028800002D10146521C05920A23059800786F2850
:1028900071D00CDC632820D004DC25286CD05828AB
:1028A0000DD187E0642801D0692808D186E070281E
:1028B00063D073282FD0752871D078287CD0BC4283
:1028C00001D884F800B0641C05990878002868D005
:1028D000BC4200D82070641C81E0E80605D507E002
:1028E000BC4201D884F80090641C761E002EF7DCF0
:1028F000069810F8041B0690C8B2BC4200D820709D
:10290000641C04E0BC4201D884F80090641C761E6C
:10291000002EF7DC63E0069808C8069003B941A3CF
:102920001846FFF735FAB8F1000F02DD404500DD2B
:102930004046E90605D508E0BC4201D884F800907D
:10294000641C3146761E8142F6DC002106E0BC4262
:1029500001D81A782270641C5B1C491C8142F6DB8A
:1029600004E0BC4201D884F80090641C3146761E15
:102970008142F6DC33E01BE014E0701C02D1082633
:1029800045F00105CDE9006806980295102304C8BA
:10299000069039462046FEF7FFF904461FE00FE097
:1029A0000AE028E0BC4201D884F800B0641C16E0BC
:1029B000082305E045F04005102301E045F002053D
:1029C0006C291BD068291DD0069804C80690CDE953
:1029D0000068394620460295FEF7DEF90446059860
:1029E000401C05900598007800287FF4E8AEBC42B2
:1029F00011D8207010E0491E0591F0E7069804C830
:102A00000690E4E7069830F8041B06908AB2A807FF
:102A1000DDD512B2DBE7387007B0A4EB0A00BDE8E1
:102A2000F08F0000284E554C4C29000000207047C4
:102A300000207047002070470020704710B5FDF758
:102A4000D1FBFEF7C9FBFFF74BF9FFF76FFAFFF772
:102A50003FFAFEF735FAFFF775FAFFF735FBFFF798
:102A600051FA002010BD10B5024600206FF02F046F
:102A700007E04B1C1360097800EB800004EB40007A
:102A8000084411680B78303B0A2BF2D310BD7274E6
:102A90005F6170706C69636174696F6E5F696E69A4
:102AA000740072745F7468726561645F69646C65F8
:102AB0005F6578637574650072745F73656D5F69D7
:102AC0006E69740072745F73656D5F6465746163D1
:102AD000680072745F73656D5F6372656174650031
:102AE00072745F73656D5F64656C657465007274A4
:102AF0005F73656D5F74616B650072745F73656DA4
:102B00005F636F6E74726F6C0072745F6D625F6989
:102B10006E69740072745F6D625F6465746163688E
:102B20000072745F6D625F637265617465007274D8
:102B30005F6D625F64656C6574650072745F6D6281
:102B40005F73656E645F776169740072745F6D6254
:102B50005F726563760072745F6D625F636F6E743F
:102B6000726F6C0000000100020001000300010010
:102B70000200010004000100020001000300010046
:102B80000200010005000100020001000300010035
:102B90000200010004000100020001000300010026
:102BA0000200010006000100020001000300010014
:102BB0000200010004000100020001000300010006
:102BC00002000100050001000200010003000100F5
:102BD00002000100040001000200010003000100E6
:102BE00002000100070001000200010003000100D3
:102BF00002000100040001000200010003000100C6
:102C000002000100050001000200010003000100B4
:102C100002000100040001000200010003000100A5
:102C20000200010006000100020001000300010093
:102C30000200010004000100020001000300010085
:102C40000200010005000100020001000300010074
:102C50000200010004000100020001000300010065
:102C60000200010030313233343536373839616291
:102C70006364656600303132333435363738394174
:102C800042434445460072745F6672656500706C2D
:102C900075675F686F6C65730072745F73797374C6
:102CA000656D5F686561705F696E69740072745FFD
:102CB0006D616C6C6F630072745F7265616C6C6FD8
:102CC000630072745F63616C6C6F630072745F6F3A
:102CD000626A6563745F696E69740072745F6F62C3
:102CE0006A6563745F6465746163680072745F6FC2
:102CF000626A6563745F616C6C6F636174650072B6
:102D0000745F6F626A6563745F64656C65746500A7
:102D100072745F6F626A6563745F69735F737973FE
:102D200074656D6F626A6563740072745F6F626A66
:102D30006563745F66696E640072745F736368656F
:102D400064756C655F696E736572745F74687265D3
:102D500061640072745F7363686564756C655F724B
:102D6000656D6F76655F746872656164005F72742B
:102D70005F7468726561645F696E69740072745F24
:102D80007468726561645F696E69740072745F74FF
:102D900068726561645F73746172747570007274D7
:102DA0005F7468726561645F646574616368007212
:102DB000745F7468726561645F64656C65746500F6
:102DC00072745F7468726561645F736C65657000CE
:102DD00072745F7468726561645F636F6E74726F42
:102DE0006C0072745F7468726561645F7375737090
:102DF000656E640072745F7468726561645F7265A9
:102E000073756D650072745F7468726561645F7478
:102E1000696D656F75740072745F74687265616462
:102E20005F66696E640072745F74696D65725F6974
:102E30006E69740072745F74696D65725F64657445
:102E40006163680072745F74696D65725F64656C5C
:102E50006574650072745F74696D65725F73746127
:102E600072740072745F74696D65725F73746F70F1
:102E70000072745F74696D65725F636F6E74726FF8
:102E80006C0000002872745F75696E7433325F7471
:102E900029282872745F75696E74385F74202A2936
:102EA0006D656D202B2053495A454F465F53545250
:102EB0005543545F4D454D2920252052545F414CC8
:102EC00049474E5F53495A45203D3D2030000000A0
:102ED0002872745F75696E74385F74202A29726D68
:102EE000656D203E3D202872745F75696E74385F91
:102EF00074202A29686561705F707472202626200C
:102F00002872745F75696E74385F74202A29726D37
:102F1000656D203C202872745F75696E74385F742B
:102F2000202A29686561705F656E64002872745F8D
:102F300075696E7433325F74296D656D202B205373
:102F4000495A454F465F5354525543545F4D454D82
:102F5000202B2073697A65203C3D202872745F75B0
:102F6000696E7433325F7429686561705F656E6481
:102F700000000000392A0008312A00082D2A000824
:102F8000352A0008A42F000800000020C40000001B
:102F90002C09000868300008C40000201C1700003D
:102FA0003C0900080095BA0A00000000000000007B
:102FB00001020304060708090000000001020304DF
:102FC00001020304060708090000000000000000D9
:102FD00000000000000000000000000000000000F1
:102FE00000000000000000000000000000000000E1
:102FF0000000000000000000000000005800002059
:103000005800002078000000010000006800002047
:10301000680000202000000004000000780000206C
:103020007800002030000000090000008800002027
:10303000880000202C0000000000000000000000BC
:103040000000000000000000000000000000000080
:103050000000000000000000000000000000000070
:08306000000000000000000068
:04000005080001AD41
:00000001FF
