:020000040800F2
:10000000D8170020C1010008930400088B020008E3
:1000100091040008EB0200087108000800000000CD
:1000200000000000000000000000000015060008AD
:10003000ED0200080000000013020008ED060008B1
:10004000DB010008DB010008DB010008DB01000820
:10005000DB010008DB010008DB010008DB01000810
:10006000DB010008DB010008DB010008DB01000800
:10007000DB010008DB010008DB010008DB010008F0
:10008000DB010008DB010008DB010008DB010008E0
:10009000DB010008DB010008DB010008DB010008D0
:1000A000DB010008DB010008DB010008DB010008C0
:1000B000DB010008DB010008DB010008DB010008B0
:1000C000DB010008DB010008DB010008DB010008A0
:1000D000DB010008DB010008DB010008DB01000890
:1000E000DB010008DB010008DB010008DB01000880
:1000F000DB010008DB010008DB010008DB01000870
:10010000DB010008DB010008DB010008DB0100085F
:10011000DB010008DB010008DB010008DB0100084F
:10012000DB010008DB010008DB010008DB0100083F
:10013000DB010008DB010008DB010008DB0100082F
:10014000DB010008DB010008DB010008DB0100081F
:10015000DB010008DB010008DB010008DB0100080F
:10016000DB010008DB010008DB010008DB010008FF
:10017000DB010008DB010008DB010008DB010008EF
:10018000DB010008DB010008DB010008DB010008DF
:10019000DB010008DB010008DB010008DB010008CF
:1001A000DB010008DB010008DB010008DFF80CD0F0
:1001B00000F082F800480047DD020008D817002050
:1001C0000648804706480047FEE7FEE7FEE7FEE7F1
:1001D000FEE7FEE7FEE7FEE7FEE7FEE701070008B1
:1001E000AD010008EFF3108072B6704780F31088FD
:1001F00070472B4A1368012B04D04FF001031360A2
:10020000284A1060284A116028484FF08051016048
:100210007047EFF3108272B62148016891B14FF038
:10022000000101601F48016829B1EFF3098121E94C
:10023000F00F006801601C4909680968B1E8F00F17
:1002400081F3098882F310884EF0040E7047164936
:10025000086014494FF00000086011494FF0010098
:10026000086013484FF47F01D0F8002041EA0201F2
:1002700001600E484FF0805101600E480068006830
:1002800080F3088861B662B67047EFF3098000B565
:1002900000F0ECFE5DF804EB4EF0040E7047000039
:1002A000BC000020B4000020B800002004ED00E0F5
:1002B00020ED00E008ED00E0064C074D06E0E068A8
:1002C00040F0010394E8070098471034AC42F6D39D
:1002D000FFF770FF742D0008942D000810B5FFF78C
:1002E00081FF02F0A3FA002010BDFEE77047000076
:1002F00070B586B00121084600F01EF901211020DA
:1003000000F028F900248DF8164001208DF8170020
:1003100002258DF815508DF81450400204901C4EA3
:1003200004A9304600F038F88DF8145069020491A1
:1003300004A9304600F030F807220A21304600F0C8
:1003400069F807220921304600F064F84FF4E130E3
:100350000090ADF80440ADF80640ADF80840ADF8A7
:100360000C400C20ADF80A000A4C6946204600F00B
:100370001DFA00F08FF8012240F22551204600F0CE
:10038000FAF90121204600F0E3F906B070BD000043
:1003900000000240001001402DE9F0410022012739
:1003A0004FF0030C07FA02F50B682B40AB422CD13F
:1003B000066853000CFA03F4A64306600E79D0F8E1
:1003C00000809E4046EA080606600E79012E01D0A4
:1003D000022E12D18668A64386604E79D0F8088036
:1003E0009E4046EA080686604668AE434660456819
:1003F0008E799640B6B235434560C568A543C56061
:10040000CC799C40C3681C43C460521C102AC9D3D9
:10041000BDE8F08110B54B07DB0E9A40C90800EB30
:100420008100016A0F249C40A1430162016A1143CB
:10043000016210BD2DE9FC410121802000F07CF813
:100440004FF48064009401208DF8040000218DF8A1
:1004500006108DF807008DF805100C4F69463846D8
:10046000FFF79AFF6600009669463846FFF794FF4B
:10047000A500009569463846FFF78EFF03481830FF
:10048000048006800580BDE8FC810000001C02405D
:10049000FEE7704708B54FF4A06000F043F8252050
:1004A0008DF8000001208DF801008DF802008DF814
:1004B0000300684600F002F808BD000030B50F23C5
:1004C000C27801250178002A1FD0154A126802F46B
:1004D000E062C2F5E062C2F30722C2F10404D34035
:1004E0004278A24084781C401443220101F1E021AB
:1004F00081F80024007800F01F018D404009800041
:1005000000F1E020C0F8005130BD01F01F0085402F
:100510004809800000F1E020C0F8805130BD0000A3
:100520000CED00E0024908430249086070470000F2
:100530000000FA050CED00E0054A002903D011681F
:1005400001431160704711688143116070470000DA
:1005500030380240054A002903D011680143116078
:1005600070471168814311607047000044380240B1
:1005700070B5244B196801F00C01234C00291ED0E2
:10058000224E04291DD008291DD00460196801F0ED
:10059000F00109091E4A545C0168E14041601C6891
:1005A00004F4E054A40A145D21FA04F484601B6886
:1005B00003F460435B0BD25CD140C16070BD04604A
:1005C000E4E70660E2E70F4A121F1168C1F38055A5
:1005D000116801F03F0135B1B6FBF1F11468C4F3C5
:1005E0008814614305E0B4FBF1F11468C4F3881486
:1005F00061431268C2F30142521C5200B1FBF2F196
:100600000160C3E7083802400024F40040787D010F
:1006100014000020704700001CB5002101910091DA
:100620002E4A106840F4803010604FF4A0431068E8
:1006300000F4003000900198401C0190009810B91F
:1006400001989842F3D11068800302D501200090F0
:1006500000E00091009801283FD120484030016817
:1006600041F0805101601E49086840F44040086034
:100670001A48083003680360036843F400430360CA
:10068000036843F4A0530360041F164B23601368F0
:1006900043F08073136013689B01FCD50A6842F431
:1006A00080320A604A68D203FCD50A6842F40032FC
:1006B0000A604A689203FCD50B4A40F2057111604A
:1006C000016821F003010160016841F0020101604D
:1006D0000168C1F381010229FAD11CBD0038024032
:1006E00000700040195A4007003C024010B500F06D
:1006F0005DFD01F0B9FDBDE8104000F06BBD0000EC
:1007000010B50F48016841F0010101600C4A002159
:100710000832116002680B4B1A400260031D0A4A3E
:100720001A60026822F48022026005480C300160E1
:10073000FFF772FF05494FF00060086010BD000030
:1007400000380240FFFFF6FE1030002408ED00E004
:10075000002904D0818941F4005181817047818949
:1007600021F40051818170470246002012880A421C
:1007700000D00120704710B540F66A13C1F3421350
:1007800001F01F040121A140012B07D0022B07D04B
:1007900014303AB102680A43026010BD0C30F8E729
:1007A0001030F6E702688A43026010BD7FB5044648
:1007B0000D46208A20F44051E88808432082A08911
:1007C00041F20C618843A9882A8911436A8902434E
:1007D0001143A181A08A20F44071A8890843A08216
:1007E0006846FFF7C5FE1E48844202D01D48844279
:1007F00001D1039800E00298A189090408D500EB13
:10080000C00101EB001029684900B0FBF1F007E0DE
:1008100000EBC00101EB001029688900B0FBF1F08A
:100820006422B0FBF2F109010B096FF018056B436C
:1008300000EB8300A3891D044FF0320307D503EBBF
:10084000C000B0FBF2F000F00700084306E003EB45
:100850000010B0FBF2F000F00F00084320817FBDD4
:100860000010014000140140C1F30801818070476D
:10087000FEE70000002807D00F4910F0FF0F05D059
:10088000C0B2085C401C70470020704710F47F4FD6
:1008900004D0C0F30720085C0930704710F47F0FC4
:1008A00004D0C0F30740085C1130704701EB1060C2
:1008B00000781930704700005429000802E008C889
:1008C000121F08C1002AFAD170477047002001E0CA
:1008D00001C1121F002AFBD17047000003480168C4
:1008E000814201D001207047002070479C00002009
:1008F0002DE9FC4109A91F4662C9089B044604F181
:1009000014004060006022626762A362E1620A46EE
:100910002321184600F0F0FDD4E90A014218D4E979
:100920000801121F114B00F023FCE061202D04D3BD
:100930009E220F490FA000F0E5F93034A5716571D2
:100940000020A060E6602661206020712064606461
:10095000303C0090019023460F4A214604F14400A8
:1009600001F024FD0020BDE8FC810000891D000885
:100970005D2B00087072696F72697479203C205297
:10098000545F5448524541445F5052494F52495474
:10099000595F4D41580000006121000810B5029CCC
:1009A00024F001044472C161026200218162436249
:1009B00000EBC102143252601260491C0129F7DBBE
:1009C00010BD10B5002200EBC2011431D1E9004383
:1009D0006360D1E90034236049600960521C012A38
:1009E000F1DB10BD0A4D4FF480644FF4FA77AE1E70
:1009F0002C80384601F0C5F906A000F027FC3480B1
:100A0000384601F0BEF90BA000F020FCF0E7000032
:100A10001A1C02406C6564315F7468726561642001
:100A200072756E6E696E672C4C4544315F4F4E2077
:100A30000D0A00006C6564315F7468726561642042
:100A400072756E6E696E672C4C4544315F4F464639
:100A5000200D0A001CB501F03BF814200321CDE95C
:100A600000104FF400730022064907A001F063F95B
:100A70000749086018B101F0EDFA00201CBD4FF0E5
:100A8000FF301CBDE50900086C6564310000000002
:100A90002400002010B500F07BF9BDE81040FFF7FE
:100AA000D9BF000070B504461F4D2868844204D2A7
:100AB000A2221E491EA000F025F96868844204D3D2
:100AC000A3221A4922A000F01DF9608820B1A422B7
:100AD00016492AA000F016F9606829680844844283
:100AE0000FD042886AB96A6890420AD0AA688242E6
:100AF00000D1AC6042686260436801F10800621A8C
:100B00001A50A0680844A0420CD04288002A09D19B
:100B1000AA68A24200D1A86062684260401A626876
:100B20000831505070BD0000380000207E2A0008B7
:100B30002872745F75696E74385F74202A296D6538
:100B40006D203E3D20686561705F7074720000002A
:100B50002872745F75696E74385F74202A296D6518
:100B60006D203C202872745F75696E74385F742044
:100B70002A29686561705F656E6400006D656D2D82
:100B80003E75736564203D3D203000002DE9FF4F28
:100B9000DDE90DB60F9D6C0602D5DFF814A103E068
:100BA000DFF80CA1AAF1110AEC0601D525F0010528
:100BB000EC0702D04FF0300901E04FF02009002788
:100BC000AC070BD5002A02DA2D27524206E06C074B
:100BD00001D52B2702E02C0700D520270024EE4664
:100BE0007AB9302201248DF800200CE00A2B15D0B0
:100BF00002F00F081209A4461AF80880641C0EF8C7
:100C00000C80002AF2D1B44200DD2646ABEB06028E
:100C100015F0110F4FF0200309D016E04FF00A0C29
:100C2000B2FBFCF80CFB1828B2FBFCF2E3E73FB187
:100C3000002A05DD521E03E0884200D80370401CE4
:100C4000B2F1000CA2F10102F6DC27B1884201D812
:100C50000770521E401CED0605D508E0884201D8F9
:100C600080F80090401C151EA2F10102F6DC30272E
:100C700003E0884200D80770401C3546761EA54226
:100C8000F7DC05E0884202D81EF804500570401CCD
:100C9000251EA4F10104F5DC03E0884200D80370AE
:100CA000401C141EA2F10102F7DC04B0BDE8F08F75
:100CB000652A00081CB514200A21CDE900104FF464
:100CC00000730022074908A001F035F8044624B952
:100CD000D122074907A000F015F82046BDE81C40C6
:100CE00001F0B8B9950A00086D61696E0000000056
:100CF0007E28000874696420213D2052545F4E55BF
:100D00004C4C000038B50D46002100910A494C6852
:100D1000002C05D001B02946A446BDE8304060470C
:100D2000134601462A4605A000F090FA9DF80000FF
:100D30000028FBD038BD0000300000202825732992
:100D400020617373657274696F6E206661696C658A
:100D5000642061742066756E6374696F6E3A2573E2
:100D60002C206C696E65206E756D6265723A256423
:100D7000200A000070B5044C044D02E02068804752
:100D8000241DAC42FAD370BD682D00086C2D0008FC
:100D900070B5044C044D02E020688047241DAC422D
:100DA000FAD370BD6C2D0008702D000810B5FFF748
:100DB00019FA044A5188491C5180BDE81040FFF7D8
:100DC00015BA00009000002010B5FFF70BFA094A91
:100DD0005188491E09B25180002907DC0021518049
:100DE000FFF704FABDE8104000F0D8BCBDE81040A1
:100DF000FFF7FCB99000002070B50446FFF7F2F948
:100E0000054600F0E1F948B1334934A000F01EFA7C
:100E100040F2292230493BA0FFF774FF2846FFF734
:100E2000E5F9002C57D0A00705D040F22D222A4921
:100E300035A0FFF767FF414D2868844202D36868F8
:100E4000844205D340F22E2223493D48FFF75AFF42
:100E5000286884423FD3686884423CD20C3C4FF0FF
:100E6000FF31384800F090FD60884FF4F55610B11E
:100E70002088B04208D034A000F0E8F923886288C6
:100E8000214638A000F0E2F9608828B940F24D22EE
:100E9000114940A0FFF736FF2088B04205D040F24C
:100EA0004E220D493EA0FFF72DFF002060802680D6
:100EB000A868844200D2AC6029686068611A401A50
:100EC0002969081A28612046FFF7ECFDBDE870404B
:100ED0001C4800F03BBD70BD762A000846756E6365
:100EE00074696F6E5B25735D207368616C6C206E36
:100EF0006F74206E65207573656420696E20495398
:100F0000520A00003000000028282872745F7569BA
:100F10006E7433325F7429726D656D292026202826
:100F200052545F414C49474E5F53495A45202D204A
:100F3000312929203D3D20300000000038000020EC
:100F4000C02C0008B8120020746F206672656520FE
:100F50006120626164206461746120626C6F636B04
:100F60003A0A00006D656D3A203078253038782CCB
:100F7000207573656420666C61673A2025642C20B7
:100F80006D6167696320636F64653A20307825304E
:100F900034780A006D656D2D3E7573656400000040
:100FA0006D656D2D3E6D61676963203D3D2048454F
:100FB00041505F4D414749430000000000487047E1
:100FC000C000002000487047C010002010B5124833
:100FD0004FF47A710068B0FBF1F0401EB0F1807FF1
:100FE00009D24FF0E02148610C4AF0201070002037
:100FF000886107200861FFF71DFAFFF779F9FFF70D
:10100000B9FEFFF7DFFF0446FFF7D8FF2146BDE832
:10101000104000F0D1BD00000000002023ED00E0F2
:1010200070B50446FFF7C2FE0F4D16E00A2809D13D
:101030000D212846FFF718FC80212846FFF794FB76
:101040000028F9D014F8011B2846FFF70DFC802179
:101050002846FFF789FB0028F9D020780028E5D141
:10106000BDE87040FFF7B0BE0010014010B5044667
:1010700017480168002903D020468847002826D059
:1010800014A0E16900F0E2F816A0A16900F0DEF812
:1010900018A0616900F0DAF81AA0216900F0D6F80A
:1010A0001CA0E16800F0D2F81EA0A16800F0CEF804
:1010B00020A0616800F0CAF822A0216800F0C6F8FC
:1010C00000F08EFF014623A000F0C0F8FEE710BD3F
:1010D000B00000207073723A203078253038780ADA
:1010E000000000002070633A203078253038780AFC
:1010F00000000000206C723A203078253038780AE1
:10110000000000007231323A203078253038780AF9
:10111000000000007230333A203078253038780AE9
:10112000000000007230323A203078253038780ADA
:10113000000000007230313A203078253038780ACB
:10114000000000007230303A203078253038780ABC
:101150000000000068617264206661756C74206F25
:101160006E207468726561643A2025730A0000007D
:1011700070B50646121D22F00700A0F14005284672
:101180000022094C40F82240521C102AFAD3016276
:10119000002141628162C1620163436386634FF053
:1011A0008071C163284670BDEFBEADDE10B5FFF79C
:1011B00019F8044A1178491C1170BDE81040FFF776
:1011C00015B800002C00002001480078704700008E
:1011D0002C00002010B5FFF705F8044A1178491ECD
:1011E0001170BDE81040FFF701B800002C0000208E
:1011F0002DE9F04105460E461446304600F07AFFD0
:1012000006F1140714B1012C1DD104E0394628461B
:1012100000F043F817E02C680DE0A4F1140096F8F4
:10122000351090F83520914204D23946143000F040
:1012300034F802E02468AC42EFD1AC4203D1394625
:10124000284600F02AF80020BDE8F0810FB408B568
:1012500003AB00937F210548029A01F097F90348F8
:10126000FFF7DEFE01B05DF814FB0000381200202D
:101270000268516002680A60016048607047026855
:10128000516002680A6001604860704702685160FE
:1012900002680A60016048607047426811604268F5
:1012A0004A604160086070470168814201D10120B5
:1012B0007047002070470168814201D101207047CA
:1012C00000207047D0E900215160D0E90012116080
:1012D000406000607047D0E900215160D0E9001201
:1012E00011604060006070472DE9F0470446FEF74A
:1012F00079FF0546FFF768FF48B1594959A0FFF744
:10130000A5FF4FF48B72564960A0FFF7FBFC2846FF
:10131000FEF76CFF4CB1E41C24F003055C4EF06852
:10132000854204D90020BDE8F0870020FBE70C2DA2
:1013300000D20C254FF0FF31564800F025FBB7686E
:101340003168781AD6F80CC0ACEB05027FE00C18B7
:101350006388002B7AD163681B1A0C3BAB4275D3B0
:1013600062684FF00109131A0C3B05F118024FF4A3
:10137000F558934221D343190C33CA18A2F80080C0
:101380004FF0000AA2F802A0D4F804A0C2F804A00A
:1013900090606360A4F8029050680CF10C0C6045FA
:1013A00002D001F108028350306928440C303061CA
:1013B000726982420DD270610BE0A4F802906068FD
:1013C000621A801A3269104430617269824200D216
:1013D0007061A4F80080BC4214D1726802E04068D9
:1013E0000844B060B06843880BB19042F7D1B1684F
:1013F000914207D0408828B140F28312184926A0B4
:10140000FFF780FC234800F0A1FA601971680C30E6
:10141000884205D940F2871211492948FFF772FC2A
:1014200004F10C05A90705D04FF4C4720C492548F6
:10143000FFF768FCA10707D040F28912084900E0D5
:1014400004E021A0FFF75EFC28466CE7606882425A
:101450003FF67DAF0F4800F079FA002063E7000007
:101460009D2A000846756E6374696F6E5B25735D17
:10147000207368616C6C206E6F74206E65207573CC
:10148000656420696E204953520A00003000000054
:1014900038000020B812002028286C66726565208C
:1014A0003D3D20686561705F656E6429207C7C200D
:1014B00028216C667265652D3E7573656429290067
:1014C0001C2D0008742C000828282872745F756988
:1014D0006E7433325F74296D656D29202620285281
:1014E000545F414C49474E5F53495A45202D2031A6
:1014F0002929203D3D20300010B50346CCB2042AF6
:1015000015D3810713D1014644EA042343EA034378
:1015100005E00B604B608B60CB601031103A102AF5
:10152000F7D201E008C1121F042AFBD20B46E1B238
:1015300001E003F8011B521E541CFAD110BD00003B
:101540002DE9F04106460F46FEF74CFE0446FFF734
:101550003BFE48B11A491BA0FFF778FE40F2451246
:10156000174922A0FFF7CEFB2046FEF73FFE30468C
:1015700000F0B0F805462DB940F2511210491CA0F8
:10158000FFF7C0FBE868FFF7AFFE0446ACB1267278
:101590000020607208223946204600F0F9FAFEF772
:1015A00021FE064604F10C01281DFFF761FE3046BE
:1015B000FEF71CFE2046BDE8F0810020FBE700009E
:1015C000DC2A000846756E6374696F6E5B25735D77
:1015D000207368616C6C206E6F74206E652075736B
:1015E000656420696E204953520A000030000000F3
:1015F000696E666F726D6174696F6E20213D205255
:10160000545F4E554C4C000070B50446002C05D17B
:1016100040F287120D490EA0FFF774FB207A0006F6
:1016200005D54FF4C47209490EA0FFF76BFBFEF716
:10163000D9FD054604F10C00FFF744FE2846FEF7ED
:10164000D5FD2046BDE87040FFF7D6BBEF2A000865
:101650006F626A65637420213D2052545F4E554C81
:101660004C00000021286F626A6563742D3E747916
:10167000706520262052545F4F626A6563745F4331
:101680006C6173735F5374617469632900000000B7
:1016900070B50446002C05D14FF49472074908A098
:1016A000FFF730FBFEF79EFD054604F10C00FFF747
:1016B00009FE2846BDE87040FEF798BDCB2A000819
:1016C0006F626A65637420213D2052545F4E554C11
:1016D0004C0000000021074A02EB01131B788342F3
:1016E00002D102EB01107047491C0429F4DB0020F1
:1016F00070470000500000202DE9F04105460E46DD
:1017000017463046FFF7E6FF04462CB94FF48372C4
:101710000C490DA0FFF7F6FA46F080002872082267
:101720003946284600F034FAFEF75CFD064605F11E
:101730000C01201DFFF79CFD3046BDE8F041FEF78F
:1017400055BD0000BC2A0008696E666F726D617439
:10175000696F6E20213D2052545F4E554C4C000065
:1017600010B50446002C05D14FF4D672054906A0E9
:10177000FFF7C8FA207A000601D5012010BD00202D
:1017800010BD0000002B00086F626A6563742021A1
:101790003D2052545F4E554C4C00000070B5FEF792
:1017A00021FD0546174C608820B12846BDE87040F1
:1017B000FEF71CBDA068FFF75DF8421E124850F806
:1017C000321014396068814216D0227061600F4A6D
:1017D000127842B11C311C30FEF70BFD2846BDE8E3
:1017E0007040FEF703BD1C311C30FEF702FD284699
:1017F000BDE87040FEF7FABC2846BDE87040FEF731
:10180000F5BC000090000020D81200202C00002021
:1018100010B50446002C05D14FF49172114912A065
:10182000FFF770FAFEF7DEFC024614F8340F20F0E2
:101830000F00401C207060781049343C01EBC0015F
:1018400004F114004B6818604B6843604860016005
:101850000B48A16B836819438160BDE810401046B6
:10186000FEF7C4BC292B00087468726561642021EE
:101870003D2052545F4E554C4C000000D8120020C1
:101880009000002070B50546002D05D14FF4A872D8
:10189000134914A0FFF736FAFEF7A4FC014605F140
:1018A0001404D4E900205060D4E9000210606460A0
:1018B000246095F83500104A02EBC00002688242AD
:1018C00001D1012000E0002020B10C48AB6B826800
:1018D0009A438260BDE870400846FEF787BC00006E
:1018E000432B000874687265616420213D205254C6
:1018F0005F4E554C4C000000D81200209000002094
:101900002DE9F04104460F4615461E46002C04D131
:10191000D822094909A0FFF7F5F93A4601212046E6
:10192000FFF7EAFE2046143040600060A58366722F
:101930000020BDE8F0810000A828000873656D2034
:10194000213D2052545F4E554C4C000070B504466A
:101950000025FEF747FC064604F11400FFF7A4FC3F
:1019600040B1A08B401CA0833046FEF73FFC012D08
:1019700006D007E06069143800F000FB0125F3E7AA
:10198000FFF70CFF002070BD2DE9F3410446002C49
:1019900005D140F24D12304930A0FFF7B3F9FEF700
:1019A00021FC0646A08B28B1401EA0833046FEF7DE
:1019B0001DFC4FE0019840B1FEF714FC074600F013
:1019C0000FFB40F26D1538B10FE03046FEF70EFC0C
:1019D0006FF00100BDE8FC811F4924A0FFF736FC31
:1019E0002A461D492FA0FFF78DF9FEF7FBFB804625
:1019F000FFF7EAFB40B118492BA0FFF727FC2A4666
:101A0000154928A0FFF77EF94046FEF7EFFB384660
:101A1000FEF7ECFB00F0E4FA054600202863627A4A
:101A2000294604F11400FFF7E3FB0198002809DDC3
:101A300005F1440001AA0021044600F061FC2046A3
:101A400000F0DEFC3046FEF7D1FBFFF7A7FE286B67
:101A50000028BFD10020BDE7DE28000873656D2097
:101A6000213D2052545F4E554C4C000046756E632C
:101A700074696F6E5B25735D207368616C6C206E9A
:101A80006F742062652075736564206265666F728D
:101A900065207363686564756C6572207374617228
:101AA000740A00003000000046756E6374696F6E42
:101AB0005B25735D207368616C6C206E6F74206EA3
:101AC00065207573656420696E204953520A0000D1
:101AD00008B509A0FFF7BAFB0AA0FFF7B7FB12A0F1
:101AE000032300900022194612A0FFF7AFFBBDE8C8
:101AF000084018A0FFF7AABB0A205C207C202F0A10
:101B0000000000002D205254202D202020202054A1
:101B10006872656164204F7065726174696E6720D8
:101B200053797374656D0A004E6F76203139203217
:101B300030313900202F207C205C202020202025DF
:101B4000642E25642E2564206275696C64202573DB
:101B50000A0000002032303036202D20323031385B
:101B600020436F707972696768742062792072749B
:101B70002D746872656164207465616D0A000000EF
:101B8000014600E0491C0A78002AFBD1081A704778
:101B900010B5002A07D0034611F8014B03F8014B9A
:101BA00014B1521EF8D110BD002101E003F8011B51
:101BB000521EFBD110BD00002DE9F04106460F4634
:101BC000F01C20F0030427F00305FEF70BFB804612
:101BD000FFF7FAFA40B11B491BA0FFF737FBD322EE
:101BE000184923A0FFF78EF84046FEF7FFFA182D9C
:101BF00021D9A5F11800A0421DD3291B1D4D18396C
:101C0000E9602C604FF4F55222800C3161600020B5
:101C1000A060608060682044686002800122428089
:101C200041608160002314A11548FFF769FE286810
:101C3000A860BDE8F0813A463146BDE8F04111A008
:101C4000FFF704BB892A000846756E6374696F6EDE
:101C50005B25735D207368616C6C206E6F74206E01
:101C600065207573656420696E204953520A00002F
:101C7000300000003800002068656170000000003E
:101C8000B81200206D656D20696E69742C20657234
:101C9000726F7220626567696E2061646472657339
:101CA0007320307825782C20616E6420656E642066
:101CB0006164647265737320307825780A000000CF
:101CC00010B50A4B00245C800020094A02EBC001D9
:101CD00049600960401C2028F8DB1F2018705C60F8
:101CE0009C6002480C304060006010BD90000020F5
:101CF000D812002010B5074CA068FEF7BBFD401EAF
:101D0000054951F8300014386060BDE810401C30BF
:101D1000FEF79DBA90000020D81200200020044A4F
:101D200002EBC00149600960401C0028F8D07047F0
:101D3000A800002070472DE9FF478046DDE90C67C9
:101D4000894692461D4641460020FFF7F9FB0446AE
:101D500020000FD02846FFF7C7FA68B18DE8E100F0
:101D600053464A4641462046FEF7C2FD204604B08F
:101D7000BDE8F0870020FAE72046FFF745FC002089
:101D8000F5E700F033B9000070B513480468FEF7BA
:101D900029FA05462046FFF775FD042084F8340033
:101DA00004F1440000F0DEFA2046FFF7D9FC0128D8
:101DB00001D1206F58B104F114010848FFF75FFA10
:101DC0002846FEF713FABDE87040FFF7E7BC20464F
:101DD000FFF75EFCF4E70000940000209C00002068
:101DE00000F002F8FCE7000070B539E0FEF7FAF900
:101DF0000446FFF7E9F940B1224923A0FFF726FA8C
:101E0000662220492AA0FEF77DFF2046FEF7EEF964
:101E1000FEF7E8F90646FEF761FD68B32548046859
:101E2000A4F11405D4E900104860D4E90001086069
:101E300064602460FEF7BAFF296F09B1284688471D
:101E40002846FFF78DFC01280FD0FEF7BDFF304676
:101E5000FEF7CCF9A86AFEF7CFFF2846FFF7D4FBC0
:101E6000FEF73CFD0028C1D170BDFEF7ADFF304646
:101E7000BDE87040FEF7BAB93046BDE87040FEF7E5
:101E8000B5B900009228000846756E6374696F6EDC
:101E90005B25735D207368616C6C206E6F74206EBF
:101EA00065207573656420696E204953520A0000ED
:101EB000300000009C0000201FB52020C2001F2120
:101EC000094BCDE90210CDE9003207480023074A4B
:101ED00007A1783800F010F804B00348BDE81040BE
:101EE000783800F0B7B8000038110020E11D000874
:101EF0007469646C650000002DE9FF5F0746DDE949
:101F00000F86119D0E9C894692469B46002F04D158
:101F1000EE220E490EA0FEF7F5FE24B9EF220B4982
:101F200010A0FEF7EFFE4A4600213846FFF7E4FB1B
:101F3000CDE901865B4652464946384603950094F2
:101F4000FEF7D6FC04B0BDE8F09F00006D2B000842
:101F500074687265616420213D2052545F4E554C77
:101F60004C000000737461636B5F73746172742062
:101F7000213D2052545F4E554C4C000070B5044634
:101F8000002C05D140F2A5220F4910A0FEF7BAFEA1
:101F900094F8340000F00F00022802D04FF0FF3018
:101FA00070BDFEF71FF9054604F11400FFF793F921
:101FB00004F1440000F0BEFA2846FEF717F9204667
:101FC000FFF726FC002070BDE42B000874687265E2
:101FD000616420213D2052545F4E554C4C0000005E
:101FE000014800687047000094000020F1B5FEF73A
:101FF000F9F80546104804682CB94FF4FD720F49F2
:102000000FA0FEF77FFE204600F074F804F14400B4
:102010006A460021064600F073F9304600F0F0F9F8
:102020002846FEF7E3F8FFF7B9FB206B801C00D1D0
:1020300020630020F8BD000094000020B02B0008B1
:1020400074687265616420213D2052545F4E554C86
:102050004C00000010B50446002C05D14FF48A72E4
:10206000104911A0FEF74EFE94F83400000705D089
:1020700040F215120B4911A0FEF744FE3434A0784B
:102080006070012181406160022004F8340920461B
:10209000FFF774FFFFF7A4FF08B1FFF77FFB0020F5
:1020A00010BD00007C2B00087468726561642021FB
:1020B0003D2052545F4E554C4C000000287468720D
:1020C0006561642D3E7374617420262052545F5400
:1020D00048524541445F535441545F4D41534B294D
:1020E000203D3D2052545F5448524541445F494E83
:1020F0004954000070B50446002C05D140F27B2203
:10210000114912A0FEF7FEFD94F8340000F00F0014
:10211000012802D04FF0FF3070BDFEF763F805468E
:1021200094F8340020F00F00801C84F8340020461E
:10213000FFF7A8FB04F1440000F0FCF92846FEF785
:1021400055F8002070BD0000D22B0008746872653D
:10215000616420213D2052545F4E554C4C000000DC
:1021600010B50446002C05D140F2D1220E490FA033
:10217000FEF7C8FD94F8340000F00F00022805D0E7
:1021800040F2D22208490EA0FEF7BCFD6FF001001C
:10219000206304F11400FFF79EF82046FFF738FB98
:1021A000BDE81040FFF7FABAF52B000874687265B5
:1021B000616420213D2052545F4E554C4C0000007C
:1021C000287468726561642D3E73746174202620E2
:1021D00052545F5448524541445F535441545F4DFB
:1021E00041534B29203D3D2052545F5448524541B4
:1021F000445F53555350454E4400000070B5FDF701
:10220000F1FF06461348046894F8340000F00F000C
:1022100001281AD1D4E90501884216D004F114002E
:102220000546FFF758F894F835000B4901EBC0005C
:1022300041680D6041686960456028603046FDF77F
:10224000D5FFFFF7ABFA002070BD3046FDF7CEFF9B
:10225000002070BD94000020D812002001480068C2
:10226000704700002800002010B509490868401C8C
:102270000860FFF7B5FE016C491E016419B9C16B16
:102280000164FFF7BBFFBDE8104000F003B8000099
:102290002800002070B5FFF7E1FF0646FDF7A2FF1A
:1022A000054620E015480468143C6FF00041A06A20
:1022B000301A88421CD22046FEF783FBD4E907106F
:1022C0008847FFF7CBFF0646607A810708D5C1072C
:1022D00006D020F001006072204600F091F802E084
:1022E00020F0010060720548FEF7E5FF0028D9D014
:1022F0002846BDE87040FDF779BF0000A800002027
:1023000070B504460D461646002C05D140F2C912A0
:102310000E490FA0FEF7F6FC4DB1012D04D0022DA1
:1023200008D0032D0FD10AE0606A30600BE03068FE
:10233000606208E0607A20F00200607203E0607A78
:1023400040F002006072002070BD0000612C0008A7
:1023500074696D657220213D2052545F4E554C4C7E
:102360000000000070B50446002C04D1D1220949B8
:1023700009A0FEF7C7FCFDF735FF05462046FEF72E
:1023800020FB2846FDF732FF2046FFF781F90020A9
:1023900070BD0000242C000874696D657220213D19
:1023A0002052545F4E554C4C000000002DE9F8437C
:1023B0000546DDE90894884616461F46002D04D1DF
:1023C000BC22094909A0FEF79DFC42460921284686
:1023D000FFF792F94B463A46314628460094FEF7FD
:1023E000DDFABDE8F8830000162C000874696D65FD
:1023F0007220213D2052545F4E554C4C000000008D
:102400002DE9F8430446002C05D14FF49872394960
:1024100039A0FEF777FCFDF7E5FE05462046FEF7FE
:10242000D0FA607A20F0010060722846FDF7DEFEE7
:10243000606A6FF00045A84205D34FF4A0722D49A1
:1024400032A0FEF75FFCFFF709FF616A0844A06253
:10245000FDF7C8FE0746DFF8D880CDF800800022DF
:102460006E4608EBC200D0F804C00BE00068A0EB99
:10247000C201A36A4969994202D0C91AA94205D387
:1024800046F8220056F822006045EFD12AB156F8EE
:1024900022100831531C46F82310521C002AE0D0A9
:1024A0002348001FD0F8008008F10108C0F8008020
:1024B00004F114010098FEF7E9FE02250EE05FEA40
:1024C00088700DD1C5F1010004EBC001143156F83C
:1024D0002000FEF7DBFE4FEA98086D1C012DEED9B7
:1024E000607A40F0010060723846FDF77FFE002000
:1024F000BDE8F883442C000874696D657220213DA5
:102500002052545F4E554C4C0000000074696D65BC
:10251000722D3E696E69745F7469636B203C205252
:10252000545F5449434B5F4D4158202F20320000E7
:10253000A800002070B50446002C05D14FF4D472D9
:102540000C490DA0FEF7DEFB607AC0070ED0FDF748
:1025500049FE05462046FEF734FA2846FDF746FEBA
:10256000607A20F001006072002070BD4FF0FF30F3
:1025700070BD0000532C000874696D657220213D08
:102580002052545F4E554C4C000000002DE9FF4F87
:1025900083B082460AEB01077F1E5446A74201D250
:1025A0004FF0FF374FF020094FF0250B12E125289F
:1025B00004D0BC4200D82070641C08E100250599B5
:1025C000491C059108782D2814D02B2815D02028D7
:1025D00016D0232817D0302818D04FF0FF384646A1
:1025E000059A1278303A0A2A13D205A800F033F976
:1025F00006461AE045F01005E1E745F00405DEE780
:1026000045F00805DBE745F02005D8E745F0010572
:10261000D5E72A2809D1491C0591069840C806909B
:10262000002E02DA764245F01005059801782E2931
:1026300018D1401C05900178A1F130020A2A04D279
:1026400005A800F008F9804607E02A2905D1401CBA
:102650000590069850F8048B0690B8F1000F01DA47
:102660004FF000080021059A1078682801D06C28E6
:1026700002D10146521C05920A23059800786F2862
:1026800071D00CDC632820D004DC25286CD05828BD
:102690000DD187E0642801D0692808D186E0702830
:1026A00063D073282FD0752871D078287CD0BC4295
:1026B00001D884F800B0641C05990878002868D017
:1026C000BC4200D82070641C81E0E80605D507E014
:1026D000BC4201D884F80090641C761E002EF7DC02
:1026E000069810F8041B0690C8B2BC4200D82070AF
:1026F000641C04E0BC4201D884F80090641C761E7F
:10270000002EF7DC63E0069808C8069003B941A3E1
:102710001846FFF735FAB8F1000F02DD404500DD3D
:102720004046E90605D508E0BC4201D884F800908F
:10273000641C3146761E8142F6DC002106E0BC4274
:1027400001D81A782270641C5B1C491C8142F6DB9C
:1027500004E0BC4201D884F80090641C3146761E27
:102760008142F6DC33E01BE014E0701C02D1082645
:1027700045F00105CDE9006806980295102304C8CC
:10278000069039462046FEF701FA04461FE00FE0A6
:102790000AE028E0BC4201D884F800B0641C16E0CE
:1027A000082305E045F04005102301E045F002054F
:1027B0006C291BD068291DD0069804C80690CDE965
:1027C0000068394620460295FEF7E0F90446059870
:1027D000401C05900598007800287FF4E8AEBC42C4
:1027E00011D8207010E0491E0591F0E7069804C842
:1027F0000690E4E7069830F8041B06908AB2A80712
:10280000DDD512B2DBE7387007B0A4EB0A00BDE8F3
:10281000F08F0000284E554C4C29000000207047D6
:1028200000207047002070470020704710B5FDF76A
:10283000D9FCFEF7CBFBFFF74BF9FFF76FFAFFF779
:102840003FFAFEF737FAFFF775FAFFF735FBFFF7A8
:1028500051FA002010BD10B5024600206FF02F0481
:1028600007E04B1C1360097800EB800004EB40008C
:10287000084411680B78303B0A2BF2D310BD7274F8
:102880005F6170706C69636174696F6E5F696E69B6
:10289000740072745F7468726561645F69646C650A
:1028A0005F6578637574650072745F73656D5F69E9
:1028B0006E69740072745F73656D5F6465746163E3
:1028C000680072745F73656D5F6372656174650043
:1028D00072745F73656D5F64656C657465007274B6
:1028E0005F73656D5F74616B650072745F73656DB6
:1028F0005F636F6E74726F6C0072745F6D625F699C
:102900006E69740072745F6D625F646574616368A0
:102910000072745F6D625F637265617465007274EA
:102920005F6D625F64656C6574650072745F6D6293
:102930005F73656E645F776169740072745F6D6266
:102940005F726563760072745F6D625F636F6E7451
:10295000726F6C0000000100020001000300010022
:102960000200010004000100020001000300010058
:102970000200010005000100020001000300010047
:102980000200010004000100020001000300010038
:102990000200010006000100020001000300010026
:1029A0000200010004000100020001000300010018
:1029B0000200010005000100020001000300010007
:1029C00002000100040001000200010003000100F8
:1029D00002000100070001000200010003000100E5
:1029E00002000100040001000200010003000100D8
:1029F00002000100050001000200010003000100C7
:102A000002000100040001000200010003000100B7
:102A100002000100060001000200010003000100A5
:102A20000200010004000100020001000300010097
:102A30000200010005000100020001000300010086
:102A40000200010004000100020001000300010077
:102A500002000100303132333435363738396162A3
:102A60006364656600303132333435363738394186
:102A700042434445460072745F6672656500706C3F
:102A800075675F686F6C65730072745F73797374D8
:102A9000656D5F686561705F696E69740072745F0F
:102AA0006D616C6C6F630072745F7265616C6C6FEA
:102AB000630072745F63616C6C6F630072745F6F4C
:102AC000626A6563745F696E69740072745F6F62D5
:102AD0006A6563745F6465746163680072745F6FD4
:102AE000626A6563745F616C6C6F636174650072C8
:102AF000745F6F626A6563745F64656C65746500BA
:102B000072745F6F626A6563745F69735F73797310
:102B100074656D6F626A6563740072745F6F626A78
:102B20006563745F66696E640072745F7363686581
:102B300064756C655F696E736572745F74687265E5
:102B400061640072745F7363686564756C655F725D
:102B5000656D6F76655F746872656164005F72743D
:102B60005F7468726561645F696E69740072745F36
:102B70007468726561645F696E69740072745F7411
:102B800068726561645F73746172747570007274E9
:102B90005F7468726561645F646574616368007224
:102BA000745F7468726561645F64656C6574650008
:102BB00072745F7468726561645F736C65657000E0
:102BC00072745F7468726561645F636F6E74726F54
:102BD0006C0072745F7468726561645F73757370A2
:102BE000656E640072745F7468726561645F7265BB
:102BF00073756D650072745F7468726561645F748B
:102C0000696D656F75740072745F74687265616474
:102C10005F66696E640072745F74696D65725F6986
:102C20006E69740072745F74696D65725F64657457
:102C30006163680072745F74696D65725F64656C6E
:102C40006574650072745F74696D65725F73746139
:102C500072740072745F74696D65725F73746F7003
:102C60000072745F74696D65725F636F6E74726F0A
:102C70006C0000002872745F75696E7433325F7483
:102C800029282872745F75696E74385F74202A2948
:102C90006D656D202B2053495A454F465F53545262
:102CA0005543545F4D454D2920252052545F414CDA
:102CB00049474E5F53495A45203D3D2030000000B2
:102CC0002872745F75696E74385F74202A29726D7A
:102CD000656D203E3D202872745F75696E74385FA3
:102CE00074202A29686561705F707472202626201E
:102CF0002872745F75696E74385F74202A29726D4A
:102D0000656D203C202872745F75696E74385F743D
:102D1000202A29686561705F656E64002872745F9F
:102D200075696E7433325F74296D656D202B205385
:102D3000495A454F465F5354525543545F4D454D94
:102D4000202B2073697A65203C3D202872745F75C2
:102D5000696E7433325F7429686561705F656E6493
:102D60000000000029280008212800081D2800086C
:102D700025280008942D000800000020C000000055
:102D8000BC080008542E0008C000002018170000DE
:102D9000CC0800080095BA0A0000000000000000FE
:102DA00001020304060708090000000001020304F1
:102DB00001020304060708090000000000000000EB
:102DC0000000000000000000000000000000000003
:102DD00000000000000000000000000000000000F3
:102DE00000000000000000005400002054000020FB
:102DF0007800000001000000640000206400002052
:102E00002000000004000000740000207400002076
:102E10003000000009000000840000208400002031
:102E20002C00000000000000000000000000000076
:102E30000000000000000000000000000000000092
:102E40000000000000000000000000000000000082
:042E5000000000007E
:04000005080001AD41
:00000001FF
